:020000040800F2
:100000000010002059400008A9400008A94000083D
:1000100000000000000000000000000000000000E0
:10002000000000000000000000000000A9400008DF
:100030000000000000000000A9400008450B000877
:10004000A940000800000000A9400008A9400008DD
:10005000A9400008AD0E0008E10E0008150F0008C9
:1000600000000000F50D0008110E00083D0E00080C
:10007000A9400008410E0008610E000800000000C1
:10008000690E00080000000000000000890E000852
:10009000000000008B0E00088D0E0008A94000082B
:1000A00000000000A940000800000000910E0008B8
:1000B0000000000000000000000000000000000040
:1000C00010B5064C2378002B07D1054B002B02D02E
:1000D000044800E000BF0123237010BD2C04002061
:1000E000000000000C420008044B10B5002B03D0A8
:1000F0000349044800E000BF10BDC04600000000F6
:10010000300400200C42000802B47146490849003E
:10011000095C49008E4402BC7047C04603B4714676
:10012000490840004900095A49008E4403BC704701
:10013000002243088B4274D303098B425FD3030A26
:100140008B4244D3030B8B4228D3030C8B420DD339
:10015000FF22090212BA030C8B4202D312120902C7
:1001600065D0030B8B4219D300E0090AC30B8B4205
:1001700001D3CB03C01A5241830B8B4201D38B03B3
:10018000C01A5241430B8B4201D34B03C01A524158
:10019000030B8B4201D30B03C01A5241C30A8B429B
:1001A00001D3CB02C01A5241830A8B4201D38B0286
:1001B000C01A5241430A8B4201D34B02C01A52412A
:1001C000030A8B4201D30B02C01A5241CDD2C3099C
:1001D0008B4201D3CB01C01A524183098B4201D318
:1001E0008B01C01A524143098B4201D34B01C01A03
:1001F000524103098B4201D30B01C01A5241C3087B
:100200008B4201D3CB00C01A524183088B4201D3E9
:100210008B00C01A524143088B4201D34B00C01AD5
:100220005241411A00D20146524110467047FFE741
:1002300001B5002000F0F0F802BDC0460029F7D05B
:1002400076E7704703460B437FD4002243088B4276
:1002500074D303098B425FD3030A8B4244D3030B4D
:100260008B4228D3030C8B420DD3FF22090212BA12
:10027000030C8B4202D31212090265D0030B8B428E
:1002800019D300E0090AC30B8B4201D3CB03C01A78
:100290005241830B8B4201D38B03C01A5241430B53
:1002A0008B4201D34B03C01A5241030B8B4201D343
:1002B0000B03C01A5241C30A8B4201D3CB02C01AAE
:1002C0005241830A8B4201D38B02C01A5241430A26
:1002D0008B4201D34B02C01A5241030A8B4201D315
:1002E0000B02C01A5241CDD2C3098B4201D3CB01BC
:1002F000C01A524183098B4201D38B01C01A52416B
:1003000043098B4201D34B01C01A524103098B426E
:1003100001D30B01C01A5241C3088B4201D3CB0059
:10032000C01A524183088B4201D38B00C01A52413C
:1003300043088B4201D34B00C01A5241411A00D2EC
:1003400001465241104670475DE0CA0F00D0494255
:10035000031000D34042534000229C4603098B42C5
:100360002DD3030A8B4212D3FC22890112BA030A4D
:100370008B420CD3890192118B4208D389019211CF
:100380008B4204D389013AD0921100E08909C30954
:100390008B4201D3CB01C01A524183098B4201D356
:1003A0008B01C01A524143098B4201D34B01C01A41
:1003B000524103098B4201D30B01C01A5241C308B9
:1003C0008B4201D3CB00C01A524183088B4201D328
:1003D0008B00C01A5241D9D243088B4201D34B0043
:1003E000C01A5241411A00D20146634652415B1085
:1003F000104601D34042002B00D549427047634666
:100400005B1000D3404201B5002000F005F802BDAA
:100410000029F8D016E770477047C0461F231840E0
:100420001E3B8340014A13607047C04600E100E074
:100430004369013343617047012A03D0022A03D084
:10044000002070470160FBE70B680360F8E7012AB2
:1004500003D0022A03D0002070470160FBE70B683D
:100460000360F8E7012A03D0022A03D00020704776
:100470000160FBE70B680360F8E7012A03D0022A5A
:1004800003D0002070470160FBE70B680360F8E7CA
:10049000012A03D0022A03D0002070470160FBE745
:1004A0000B680360F8E7012A03D0022A03D000207A
:1004B00070470160FBE70B680360F8E7012A03D08F
:1004C000022A03D0002070470160FBE70B6803603D
:1004D000F8E7012A03D0022A03D000207047016008
:1004E000FBE70B680360F8E7012A03D0022A03D078
:1004F000002070470160FBE70B680360F8E7012A02
:1005000003D0022A03D0002070470160FBE70B688C
:100510000360F8E7012A03D0022A03D000207047C5
:100520000160FBE70B680360F8E7012A03D0022AA9
:1005300003D0002070470160FBE70B680360F8E719
:10054000012A03D0022A03D0002070470160FBE794
:100550000B680360F8E7012A03D0022A03D00020C9
:1005600070470160FBE70B680360F8E7012A03D0DE
:10057000022A03D0002070470160FBE70B6803608C
:10058000F8E7012A03D0022A03D000207047016057
:10059000FBE70B680360F8E7012A03D0022A03D0C7
:1005A000002070470160FBE70B680360F8E70B1A57
:1005B0009B10002B14DD0278002A03D04278002A19
:1005C00001D1013070478278002A01D10230F9E769
:1005D000C278002A01D10330F4E70430013BE8E798
:1005E0000B1A022B0CD0032B06D0012B02D103785F
:1005F000002BE7D00800E5E70378002BE2D00130BC
:100600000378002BDED00130F1E70B1A9B10002B92
:1006100014DD0278002A03D14278002A01D001308B
:1006200070478278002A01D00230F9E7C278002AA8
:1006300001D00330F4E70430013BE8E70B1A022B4A
:100640000CD0032B06D0012B02D10378002BE7D16D
:100650000800E5E70378002BE2D101300378002B96
:10066000DED10130F1E710B50400002C05D023687D
:1006700020001B6898476468F7E710BD03691B06F4
:1006800003D5024B4360024B43607047230167452B
:10069000AB89EFCD01220369934303610223026911
:1006A0001343036180239B02C918402389024161DF
:1006B0000269134303617047F8B50500453504002E
:1006C00046692878C0B2052839D8FFF727FD06000B
:1006D0001A0039007300BC00EF0022004832137882
:1006E000E118F05C097E884200D0FAE00133DBB209
:1006F0000B2B00D9002313705A425341443423700A
:100700001DE02069C368DB0719D403691B0616D5F1
:10071000FFF7B4FF022123691A698A431A61012293
:10072000186902431A61230048331A78013BB05C10
:1007300018701B78206C1B02134303802970F8BDCE
:100740002369DA689206FAD52022D9680A43DA606A
:10075000802219690A431A61210023004831473376
:100760001A780B78E3181A76236C981C636A206455
:10077000DA00A218566B7700166B2200F619463283
:10078000B04203D01378DBB22B70D8E70126E01813
:1007900028309B190670B34200D900236362DB0046
:1007A000E3181B6B236400230B7001332B7004339D
:1007B0001370C4E72069C368DB07C0D403691B0654
:1007C000BDD52300210028331E002A31CA1A9210F9
:1007D000002A20DD1F78002F03D15F78002F0DD075
:1007E0000133994221D09B1BE362FFF747FFE36A85
:1007F0003D4AD15CFFF74EFF0423C5E79F78002FE9
:1008000001D00233EDE7DF78002F01D00333E8E7B2
:100810000433013ADCE7CA1A022A0DD0032A07D0B2
:10082000012A0ED11A78002ADBD146342378AAE7B0
:100830001A78002AD5D101331A78002AD1D1013390
:10084000F0E70B00CDE72369DA68920600D476E77B
:100850002022D968254E0A43DA60802219690A43AA
:100860001A61E16ACB00E3181A6B5B6B5B00D3186B
:100870001000934218D00232971E3F88B742F7D03B
:1008800061180A001B1A2600591E8B4120002832CD
:100890002A36137028303100FFF7B7FE0323864253
:1008A00000D071E700236FE71800E9E72200483223
:1008B00013780133DBB20B2B10D900231370260001
:1008C00020002A3631002830FFF79FFE032386429E
:1008D00000D100232B704634002310E71370002B47
:1008E000EDD0012350E7C046E0430008FFFF0000C1
:1008F00010B50468002C05D0236820001B689847B9
:10090000A468F7E710BD10B583680400002B02D07F
:10091000032201009847200010BD000010B504001C
:10092000034B083303603030FFF7EDFF200010BDAC
:100930007445000830B505000400C03528680E4A2B
:10094000036885B01B6803920C4A694602920094C2
:1009500098476846FFF7D7FF2868094A0368694641
:10096000DB680392074A0094029298476846FFF7B3
:10097000CAFF05B030BDC0468D1100082B05000828
:100980003B120008410500087FB504000600250061
:10099000B83630681A4A036869461B680392194AD8
:1009A000009402929847BC356846FFF7ACFF286870
:1009B000154A036869461B680392144A0094029220
:1009C00098476846FFF79FFF3068114A03686946F9
:1009D0001B6903920F4A0094029298476846FFF7FA
:1009E00092FF28680C4A036869461B6903920B4A08
:1009F0000094029298476846FFF785FF7FBDC04686
:100A000063100008570500088B1000086D050008EA
:100A1000B310000883050008D710000899050008E6
:100A200030B50025C0300400006885B00368694611
:100A30001B68029598476846FFF765FF206869467E
:100A40000368DB68029598476846FFF75CFF05B0CE
:100A500030BD7FB5060000250400B8363068694611
:100A60000368BC341B68029598476846FFF74BFF44
:100A70002068694603681B68029598476846FFF737
:100A800042FF3068694603681B69029598476846CB
:100A9000FFF739FF2068694603681B69029598478C
:100AA0006846FFF730FF7FBDF0B505000700002462
:100AB0002E00B037386885B0036869461B68029419
:100AC0009847B4366846FFF71EFF306869460368EA
:100AD0001B68029498476846FFF715FF3868694617
:100AE00003681B69029498476846FFF70CFF30685B
:100AF000694603681B69029498476846FFF703FF3D
:100B00002B00C8331868694603681B68029498472D
:100B10006846FFF7F8FE2800FFF79BFF05B0F0BD21
:100B200010B504000830FFF7E3FE20696169431C3B
:100B30002361FFF783FB002902D12000FFF7D8FED5
:100B400010BD000010B50248FFF7EAFF10BDC04617
:100B50004C080020416902690023914201D343619E
:100B60000133180070470000037B002B0DD00023D9
:100B7000426803738368002A0ED0002B08D093606C
:100B800083685A6000234360836070470B60F8E716
:100B9000044993604A60F5E70249002BF6D10B60E7
:100BA0004B60EFE74C08002070B504008069E569F0
:100BB000461CA6612900FFF741FB002905D12169E8
:100BC0000A688B89106A03431362AE420AD100237C
:100BD0002169A3610A688989136A20008B43136223
:100BE000FFF7C2FF70BD002310B54361FFF7BCFFE4
:100BF00010BD0000037B002B0CD101330373064BA7
:100C00005A684260002A00D090601A685860002A32
:100C100000D118607047C0464C080020012306C868
:100C2000103293408B617047036842680120904006
:100C30001B691840431E9841C0B2704710B5FFF7BA
:100C4000F3FF030001205840C0B210BD10B50C1EC8
:100C500006D00123416802688B409361200010BDDB
:100C6000FFF7DCFFFAE70300020010B51C00E832D2
:100C700010681A78FE34023A022A12D8AC331B6884
:100C80001B78002B0DD0E18C238D9942894149427C
:100C9000FFF7DCFF0020E28C238D9A424041C0B276
:100CA00010BDFFF7BBFFF5E770B5837BC27B013357
:100CB000DBB2040083739A4200D085E000261C2535
:100CC000437B8673C31894331B7840305D433F4B9E
:100CD000ED18A9694B1E9941C9B2FFF7B7FF6969C1
:100CE00020004B1E99413830C9B2FFF7AFFF296988
:100CF00020004B1E99413030C9B2FFF7A7FFE968C9
:100D000020004B1E99412830C9B2FFF79FFFA96808
:100D100020004B1E99412030C9B2FFF797FF696848
:100D200020004B1E99411830C9B2FFF78FFF296888
:100D300020004B1E99411030C9B2FFF787FF0121F7
:100D40001825637BA06CE3189A331B785940FFF792
:100D50007DFF637B20005D431D4B7430ED18696996
:100D60004B1E9941C9B2FFF771FF296920004B1E44
:100D700099416C30C9B2FFF769FFE96820004B1E4A
:100D800099416430C9B2FFF761FFA96820004B1E8A
:100D900099415C30C9B2FFF759FF696820004B1ECA
:100DA00099415430C9B2FFF751FF296820004B1E0A
:100DB00099414C30C9B2FFF749FF637B0133DBB285
:100DC000062B00D13300637370BDC046280000209D
:100DD00038030020012901D142637047022901D163
:100DE0008263FAE7032901D1C263F6E70429F4D14B
:100DF0000264F2E7044B10B51868FFF734FC0122D7
:100E0000024B5A6010BDC0467C0700200000024023
:100E1000074B10B51868FFF726FC1023054C6360DC
:100E2000054B1868FFF71FFC80235B00636010BD53
:100E300084070020000002408C070020FEE700002D
:100E4000054B10B51868FFF70EFC0121034A138A01
:100E50008B43138210BDC04634080020002C014093
:100E600010B5FFF7EDFF10BD054B10B51868FFF783
:100E7000FAFB0121034A138A8B43138210BDC0463B
:100E80003C08002000040040FEE7FEE7FEE700000B
:100E9000044B10B51868FFF7E6FB0122024B5242E3
:100EA0001A6210BD440800200038014010B5094CFA
:100EB0006369DB0703D5084B1868FFF7D4FB636948
:100EC0009B0703D5054B1868FFF7CDFB0323636130
:100ED00010BDC04600040140A4070020AC0700205C
:100EE00010B5094C63695B0703D5084B1868FFF719
:100EF000BAFB63691B0703D5054B1868FFF7B3FB03
:100F00000C23636110BDC04600040140E4070020CB
:100F1000EC07002010B52C4C6369DB0603D52B4B86
:100F20001868FFF7A0FB63699B0603D5284B186878
:100F3000FFF799FB63695B0603D5264B1868FFF73B
:100F400092FB63691B0603D5234B1868FFF78BFBE5
:100F50006369DB0503D5214B1868FFF784FB6369E0
:100F60009B0503D51E4B1868FFF77DFB63695B0586
:100F700003D51C4B1868FFF776FB63691B0503D587
:100F8000194B1868FFF76FFB6369DB0403D5174B38
:100F90001868FFF768FB63699B0403D5144B186856
:100FA000FFF761FB63695B0403D5124B1868FFF719
:100FB0005AFB63691B0403D50F4B1868FFF753FBFB
:100FC0000E4B636110BDC04600040140F4070020D1
:100FD000FC070020040800200C0800201408002052
:100FE0001C080020B4070020BC070020C407002014
:100FF000CC070020D4070020DC070020F0FF000011
:101000000122436A19680A431A601A68D207FCD59C
:10101000036A1A68D20703D5012219680A431A60C5
:10102000012299680A439A601A68D207FCD5042203
:1010300099680A439A607047FA2110B5446800889D
:10104000238989005843FFF7FDF8A17A0200206840
:10105000FFF7C0FE10BD322310B5C361FFF7CAFD14
:1010600010BD10B50368FE331A8D01321A8503686E
:101070009A68FE335288198D914200D31A8503680D
:10108000F0331868FFF7E7FF10BD10B50368FE33B3
:101090001A8D013A1A8503689A68FE331288198DF1
:1010A000914200D81A850368F0331868FFF7D3FF20
:1010B00010BD026810B51100FE310B8D01339BB2DB
:1010C0000B8590684088834200D30885F032106811
:1010D000FFF7C1FF10BD026810B51100FE310B8D86
:1010E000013B9BB20B8590680088834200D808853D
:1010F000F0321068FFF7AFFF10BD10B50368FE3384
:101100005A8D01325A850368FE335A8D622A01D9FD
:1011100063225A850368F0331868FFF79CFF10BDFF
:1011200010B50368FE335A8D013A5A850368FE33C1
:101130005A8D012A01D801225A850368F0331868B4
:10114000FFF789FF10BD026810B51100FE314B8D0D
:1011500001339BB24B8590688088834200D34885D9
:10116000F0321068FFF777FF10BD026810B511006C
:10117000FE314B8D013B9BB2012B05D94B85F032E3
:101180001068FFF768FF10BD0123F7E797210122E0
:1011900010B504684900635C534063543023016810
:1011A000FF33CA540368F0331868FFF754FF10BDCB
:1011B000FA2310B55B00C361FFF71CFD10BD10B52D
:1011C000036899684A8801324A809A68518862297E
:1011D00001D963215180F0331868FFF7E9FF10BD92
:1011E00010B5036899684A88013A4A809A6811885C
:1011F0005088884200D85180F0331868FFF7D8FF34
:1012000010BD10B5036899688A8801328A809A688F
:101210009188622901D963219180F0331868FFF722
:10122000C7FF10BD10B503689968F0338A88013A8A
:101230008A801868FFF7BCFF10BD3022002310B56C
:1012400004000168FF328B540168013A8B54006836
:101250000D30FF30FFF7C7FC2368F0331868FFF745
:10126000A7FF10BD7FB532250368FF355A5D040026
:10127000002A2DD1F0331868FFF79AFF0123226866
:1012800053552068FFF710FC2068FFF7C9FB23685F
:1012900069461A00B83210680268D26800931A4B87
:1012A00003931A4B029390476846FFF72CFB236881
:1012B00069461A00BC3210680268D2680093144B69
:1012C0000393144B029390476846FFF71CFB7FBDC6
:1012D00000265E5503686946B83318680368DB6802
:1012E000029698476846FFF70EFB23686946BC33B1
:1012F00018680368DB68029698476846FFF703FBA7
:1013000023681E70E3E7C046BF11000839040008D7
:10131000E11100084F0400087FB5992503686D00AE
:101320005A5D0400002A2DD1F0331868FFF740FF02
:101330000123226853552068FFF7B6FB2068FFF7AA
:101340006FFB236869461A00B03210680268D268E1
:1013500000931A4B03931A4B029390476846FFF78A
:10136000D2FA236869461A00B43210680268D2685B
:101370000093144B0393144B029390476846FFF776
:10138000C2FA7FBD00265E5503686946B03318680F
:101390000368DB68029698476846FFF7B4FA23684B
:1013A0006946B43318680368DB6802969847684654
:1013B000FFF7A9FA23681E70E3E7C046031200088E
:1013C0007B0400082512000891040008F021114B4D
:1013D0005A688A435A605A680F490A4003215A6082
:1013E0005A688A43110002220A435A605A680B491C
:1013F0000A405A605A680A491140A02292030A43DF
:101400005A608022196852040A431A601A689201CD
:10141000FCD5704700100240FFF8FFFFFFFFFEFF02
:10142000FFFFC3FF0123F7B5334E01903168334A04
:10143000334C194231D1334D33492868184205D114
:101440009027FF050F6008272B604F6080255369A8
:10145000AD022B4353610B682C4F1868384005438D
:101460000F201D605D6A8543AC460225604605433A
:101470005D62DD683D40DD60254B61602360019960
:101480000123E18100215B4223810233A372A38106
:10149000218264612183E4613360802391691B01AF
:1014A0000B437021936123689A698A43110060227B
:1014B0000A439A61082299690A439A61802219684D
:1014C0000A431A608022596C12020A435A640122AC
:1014D00019680A431A60B723228A9B009A4209D0EE
:1014E000606923820B4B0C4A038103681830DA626F
:1014F000FFF7A2FD2000FEBD4406002000100240C0
:1015000048060020680600206C060020FFFFFCFF54
:10151000002C01401280FFFF12800000836810B58C
:10152000002B01D102F0C8FDC368984710BD70B50B
:10153000846800222300002B02D09A605B68FAE7DF
:1015400022004369590003695918994209D09668E5
:101550001D88751995605268002A00D12200023357
:10156000F3E7836B002B02D03030FFF7D7FF70BD5D
:1015700001233B4970B50A683A4C134023D1A0615E
:101580000F20394AA36008322260384AE3602262A1
:10159000374A63606262374A23616361E361A36330
:1015A0001368A262E062002B02D1146004E0130011
:1015B0005A68002AFBD15C6001232F4A0B6020008F
:1015C0002E4902F072FD802318212D489B0082696C
:1015D000012513438361236A8026DA6836068A432D
:1015E000DA608022D96892010A430221DA60DA685F
:1015F0002A43DA60DA680A43DA601A698A40CA4024
:1016000032431A6107225E6932435A6142694033AC
:10161000154345611020626A936013688343136029
:101620001368184818408023DB00034313601368D5
:101630001548184080235B00034313608023106823
:1016400003431360136804201943202311601168B9
:101650000B431360A36A1856FEF7E0FE200070BD2E
:10166000E0050020E4050020744500080024014046
:10167000080002407C070020000000201D0900082F
:1016800000100240FFF3FFFFFFFCFFFFF0B5012455
:101690004B4D4C4B2A68224220D14B4E4B4A31686D
:1016A000214004D19027FF051760516034608021EC
:1016B000474C8902666931430326616111680C68F1
:1016C00034430C60CC68B443CC60DA600122002162
:1016D00052421A610232196059602A60C26A0F2AA6
:1016E00004D1016A0E3A8C6A22438A620022816820
:1016F0001A610A00002A5BD01469002C53DC52687E
:10170000F8E75960C2688360002A00D1C3600569A8
:1017100082693049002D0DD00E00FC367468043DFE
:101720002F68043CE41B0F19BD4235D00C00012585
:10173000FF34657144691219274C4261A2422DD8C9
:1017400052000E00FC3674680D190434A41874603D
:1017500080267600B44224D8FF314979002920D16F
:10176000002D00D004C50121426A056114688C4334
:1017700014604069D56080B2506010680143116008
:101780001168C907FCD51800F0BD11685A601960CE
:1017900013601A685360BAE77460CBE701225242C3
:1017A000CFE70025DFE79142EFD159600B60A9E751
:1017B0000029A6D0C2681A60002AA7D05360A5E706
:1017C000F0040020F4040020080500200C0500208F
:1017D0000010024074060020FCFFFF3F01214B4B2C
:1017E000F0B51C680C4206D19024494AE405146007
:1017F0000224196054608021464B30265C698902BE
:1018000021431024424A596111680D68B5432C43A5
:1018100001250C60CC68B443CC603F4C3F4926683E
:101820002E4205D19026F6050E60032625604E60F7
:1018300080245D69C026A4022C4340255C610C68AD
:101840002768B7433D432560E568B543E560344DFF
:10185000BF3E2F68334C374205D19027FF052760E4
:1018600004272E60676080255E69AD0235435D61A7
:1018700025682D4F2E68BC463E4080277F003743A9
:101880002F606746EE683E400127EE60274E284DE8
:1018900032683A4205D19022D2052A60052237608B
:1018A0006A6080265F69B6023E4380275E612D68CC
:1018B000204A2E68FF00164037432F60EE6816401E
:1018C000EE6001261C4D2A68324205D11B4F1C4A8E
:1018D0002E603A6006227A6080255E69ED0335430A
:1018E0008026164F5D613B68164A1D6876011540DB
:1018F0002E431E60DD681540DD600D4B07604360C0
:10190000034B8460C1600361F0BDC046BC0500208C
:10191000C005002000100240B0050020B4050020E2
:10192000A4050020A8050020FFFCFFFF980500206B
:101930009C050020FFF3FFFF8C0500209005002090
:1019400000140048FFCFFFFF70B50D008968040048
:101950004B1E99411030C9B2FFF778F96968200031
:101960004B1E99410830C9B2FFF770F92968200071
:101970004B1E9941C9B2FFF769F9200070BD000004
:1019800010B503680400AC33186803780133DBB288
:10199000022B17D80C210370037804304B430C49F9
:1019A000C918FFF7D1FF20680300AC331B681B7810
:1019B000002B09D1FFF74DF82368F0331868FFF7C3
:1019C0004AFB10BD0023E5E7FEF7DEFFF4E7C04663
:1019D000040000200121654BF0B51C680C4205D1C4
:1019E000634C644A196014600A2454608021802585
:1019F000614BC9025C695F4A2143596111685F4FBD
:101A00000E686D033E4035430D600125CC683C40B7
:101A1000CC605B4C5B4926682E4204D1544E256055
:101A20000E6002264E6080255C69ED0230262C4354
:101A3000AC4610255C610C682768B7433D4301271D
:101A40002560E568B543504EE56035684F4C3D4034
:101A500003D1474A6560226037606646032201274A
:101A60005D692E435E612668356895433D43356068
:101A7000F5689543F560464E464D32683A4205D1C9
:101A80009022D2052A60072237606A6080265F694B
:101A9000B6023E4380275E612D683F4A2E68FF01F3
:101AA000164037432F600127EE681640EE603B4E2C
:101AB0003B4D32683A4205D19022D2052A60062277
:101AC00037606A6080265F69B6023E4380275E61A8
:101AD0002D68344A2E687F01164037432F60012756
:101AE000EE681640EE60304E304D32683A4204D116
:101AF0001F4A37602A600C226A6080265F69F602FE
:101B00003E4380275E612D68294A2E687F04164077
:101B100037432F60EE681640EE600126254D2A6897
:101B2000324205D1244F124A2E603A600B227A606D
:101B300080255E69ED02354380261F4F5D613B685D
:101B40001E4A1D68F60315402E431E60DD681540D1
:101B5000DD60164B07604360114B046183600D4BE1
:101B60004161C360034B8361F0BDC046D8040020CF
:101B700000040048DC04002000100240FFFFCFFFFB
:101B8000CC040020D0040020C0040020C4040020A5
:101B9000B4040020B8040020FF3FFFFFA804002089
:101BA000AC040020FFCFFFFF9C040020A004002015
:101BB000FFFFFFFC9004002094040020FFFF3FFF84
:101BC000030030B50A6830CA30C34A6830CA30C32F
:101BD0008A6830CA30C3CA6830CA30C30A6930CA9A
:101BE00030C34A6930CA30C38A6912CA12C330BDD1
:101BF0000122574BF0B51C685649144204D1564C8B
:101C00001A600C6003244C608022544BC0265C692F
:101C1000D202224340245A610A681568B5432C4316
:101C200001251460D468B443D4604D4A4D4C166805
:101C30002E4205D19026F60526600F2615606660B7
:101C4000802280265D6992022A435A612568F60542
:101C50002A6892009208324301262A60EA689200BC
:101C60009208EA60404D2A68324205D13A4F3F4A15
:101C70002E6017600927576080265D69F60235439C
:101C80003A4A5D6115683A4F2A683A4016432E6019
:101C9000EE683E400127EE60364E374D32683A42DC
:101CA00004D12D4A37602A6008226A6080265F6965
:101CB000F6023E4380275E612D68304A2E687F021F
:101CC000164037432F600127EE681640EE602C4E19
:101CD0002C4D32683A4204D11F4A37602A600722ED
:101CE0006A6080265F69F6023E4380275E612D6848
:101CF000254A2E68FF01164037432F60EE681640D4
:101D0000EE600126214D2A68324205D1204F124A49
:101D10002E603A6006227A6080255E69ED023543C6
:101D200080261B4F5D613B681A4A1D68760115408D
:101D30002E431E60DD681540DD60124B0760436076
:101D40000D4B04618360094B4161C360F0BDC04627
:101D50008404002088040020000400480010024091
:101D6000780400207C0400206C0400207004002013
:101D7000FFFFF3FF6004002064040020FFFFFCFF6E
:101D80005404002058040020FF3FFFFF48040020B7
:101D90004C040020FFCFFFFFF8B5050016240022F9
:101DA000E0B2AB1819000126943108709A33197803
:101DB000921971401970062AF3D12E002F00462384
:101DC0007C368C373B603000FEF714FF29009031E1
:101DD0000A683B689A42FBD330000134FEF703FFE8
:101DE0001C2CDCD1F8BD0000002330B504003C4AB7
:101DF0008BB0436083600373026043738373C1736A
:101E000003A8FFF7E7FD200003A91030FFF7D8FE75
:101E100001223449344B0868104203D133485A60D8
:101E200018600A6080223249D20248690C250243B8
:101E30004A6104211A681068A84301431160D168FF
:101E400003A8A943D160A364FFF7D2FE2300039A3D
:101E50004C3303CA03C3049B002501932300019A5A
:101E6000543303CA03C3059B01932300019A5C33D7
:101E700003CA03C3069B01932300019A643303CA78
:101E800003C3079B01932300019A6C3303CA03C366
:101E9000089A03CA03C3231DDD670433DD67743367
:101EA0001D73144B2000E36723008C331D60290051
:101EB0005D600622943002F044F9200006222900D9
:101EC0009A3002F03EF92000FEF794FE2000FFF762
:101ED00063FF2000FFF760FF20000BB030BDC0465D
:101EE000DC430008E4040020E8040020000400486B
:101EF0000010024038420008F0B52E4C0C22A544D8
:101F00002D4909A802F014F900222C4B27AC083304
:101F100027932B4B802123612A4B8900236337931E
:101F200038AB1A70C9236163E16306A95B181A70A4
:101F3000CA235B18FF211A70234839AB1A7009AB0A
:101F40006260A260227362622285E262A0636361C2
:101F5000A318013219760C2AFAD100210CA802F03C
:101F6000F0F82069FEF78AFB002633AD2A686B681B
:101F700094465B009C4413000CA89C450FD01A7833
:101F80000B2A08D827A98A1801215F7817761A78B2
:101F900081540233F1E71A880C498A42F9D1379308
:101FA0002A689A4214D130960835012E1FD0012696
:101FB000DCE7C046CCF9FFFF24420008804500085A
:101FC000002002400068000800640008FFFF0000D5
:101FD000696849005218934201D100F079FD0FAFB2
:101FE000666239000CA8FEF7E2FAB842DCD1636AF7
:101FF000DA00A218516B126B49005218216C914201
:102000000CD1C32206A9D2005218D318EE4A9B184D
:1020100001221A7000236362339B37930FAE3100A5
:102020000CA8FEF7C4FA0500B04201D000F056FD3E
:102030000C222DA9606902F07BF80023CA2106AAB0
:1020400052181370AC2206AB9B181B78002B15D1CD
:10205000309B0093002B11D0349BDC485A00009336
:10206000339B9A181900934201D000F044FD8A1A5C
:10207000511E8A41AC2106AB5B181A70AD2206AB2B
:102080009B181B78002B19D1309B0093012B15D086
:10209000369B359A5B00CD48D3181100934201D18D
:1020A00000F032FD0232961E36888642F5D05B1A69
:1020B000AD215A1E934106AA52181370AE2606ABE4
:1020C000F618310031A8FEF7A0FAB04204D0C923B7
:1020D00006AA9B1803221A708023226911690B43F8
:1020E00013610FAB9D4204D00C22B94909A802F03C
:1020F0001FF82000FEF77EFD0121B64AB64B10689E
:10210000084204D1B548116018600E205860802242
:102110000120B34D120369690A436A611B68B14922
:102120001A680A401A60DA680A40DA60AE4B009119
:102130001968AE4A014204D1A849186011600D2106
:102140005160802369691B030B436B611368A84EC0
:102150001A6813A832401A60DA683240DA60FFF772
:102160003DFB179BE0210193169B06AA0293159B4A
:1021700052180393149B01310493139B059300237E
:1021800013709C4A3C933A929B4A3D933B9206AA19
:102190005218137001224193459349934D935193E3
:1021A000964B1968114204D10524954995481A6047
:1021B00011C180236A69DB02914813436B61036894
:1021C000914C1968012721401960DA6822400024E7
:1021D000DA6056AB1C70422306AAFF339B1853905B
:1021E0003BA81C7054945597FEF704FDAA2206AB39
:1021F00052009B1856221C70844BFF325793844B1D
:102200005994589306AB9B181C70824B5A941A68C9
:102210005E94629466946A946E943A4204D1042166
:102220007D4A78481F6003C280236A69DB027A48CE
:1022300013436B610368794C1968012721401960C9
:10224000DA6822400024DA6073AB1C70B62306AA59
:10225000FF339B18709058A81C7071947297FEF70A
:10226000C9FCE42206AB52009B18CA221C706C4BBE
:10227000FF3274936B4B7694759306AB9B181C706E
:10228000694B77941A687B947F94839487948B949A
:102290003A4206D19021654AC90511600B211F60A1
:1022A000516080236A699B02604813436B61036835
:1022B0005F4C1968012721401960DA682240002428
:1022C000DA6090AB1C705B4B06AA9B188D9075A8CA
:1022D0001C708E948F97FEF78DFC8F2206AB9200B8
:1022E0009B181C70544B554A9193554B9394929361
:1022F00006AB9B181C70534B94941A6898949C944A
:10230000A094A494A8943A4206D190214E4AC905BB
:1023100011600A211F60516080236A699B024A484C
:1023200013436B610368494C196801272140196008
:10233000DA6822400024DA60ADAB1C70444B06AA78
:102340009B18AA9092A81C70AB94AC97FEF752FC15
:10235000AC2206AB92009B181C703E4B3E4AAE93DB
:102360003E4BB094AF9306AB9B181C703C4BB194A2
:102370001A68B594B994BD94C194C5943A4204D1F5
:102380000724384A38491F6012C280236A69DB0378
:10239000344813436B610368344C196801272140AA
:1023A0001960DA6822400024DA60CAAB1C70304B36
:1023B00006AA9B18C790AFA81C70C894C997FEF7CF
:1023C00019FCC92256E0C04694FAFFFFFFFF000047
:1023D00024420008D4050020D80500200008004849
:1023E00000100240FFFFFFCFC8050020CC050020F1
:1023F000FFFFFFF3504200087042000880050020F4
:102400008405002000040048FFF3FFFF7C42000821
:102410009C4200087405002078050020FFFCFFFFA7
:10242000A8420008C8420008680500206C0500208A
:10243000FFFF3FFF29020000D44200083D020000D8
:10244000F44200085C05002060050020FFFFCFFF7C
:102450009D02000000430008B10200002043000874
:10246000500500205405002000140048FF3FFFFFE6
:102470001103000006AB92009B181C70F14BF24A4E
:10248000CB93F24BCD94CC9306AB9B181C70F04BC6
:10249000CE941A68D294D694DA94DE94E2943A42B6
:1024A00004D10D21EB4AEC481F6003C280236A6906
:1024B000DB021343E7496B610B6800241A68CCA860
:1024C00032401A60DA681640DE600126E7AB1C7005
:1024D000E24B06AA9B181C70E491E594E696FEF781
:1024E00089FBE62206AB92009B181C70DC4BDD4A90
:1024F000E893DD4BEA94E99306AB9B181C70DB4B29
:10250000EB941A68EF94F394F794FB94FF9432429F
:1025100006D19021D64AC90511600C211E60516078
:1025200080236A699B02D24813436B610368D14CD4
:102530001968012721401960DA6822400024DA6016
:10254000FFAB08331860FFAB0C331C60FFAB1033DC
:102550001F60FFAB14331C70C74B06AA9B18E9A879
:102560001C70FEF747FBFFABC44A18331A60C44A1D
:10257000FFA85A60FFAA80321470FFAA813214703B
:1025800074AADA669C6091AADC601C74DC61DC626F
:10259000DC63DC64DC651C301A675C66FEF72AFBD2
:1025A000B84AFFAB8C331A60B74AFFA85A60FFAA3B
:1025B000F4321470FFAAF53214703AAADA669C60FD
:1025C00057AADC601C74DC61DC62DC63DC64DC6503
:1025D00090301A675C66FEF70DFB1020FEF7C8FF0F
:1025E0000790FFF753F80890FA204000FEF71AFF13
:1025F000702206002390F52006AB9B181C70A34B9D
:1026000008321F9306AB9B181C80338B20942194B7
:10261000259426974000834211D0EA23F469FF33C2
:10262000E2899A420BD9FA213083238989005843E1
:10263000FDF708FEA17A02002068FEF7CBFB944B61
:10264000328A9A4208D0706933820268914B0381C2
:10265000D3621830FEF7F0FC8F4B1A6801231A4240
:102660006AD18E4A1168194204D10E248C497A48E5
:10267000136011C180236A69DB0213436B61884BCD
:10268000009A1B6819681140802252050A431A609B
:10269000DA6800990A400121DA60824B824A1868A0
:1026A000084204D16C48196010600F2050608023EC
:1026B0006969DB020B4380216B611268C9051368ED
:1026C0009B009B080B431360D3689B009B08D3605F
:1026D0000122764B1968114206D190207449C00539
:1026E000086009201A604860802380206A699B0284
:1026F00013436B616E4B6F4C1A68C0021168214026
:1027000008431060D1682140D1606B4A6A441100CF
:1027100011CB11C1644B11CB11C1684B60496B44A3
:1027200011C911C30121664B1970043331CA31C379
:1027300031CA31C3584B196018AD2A00604B5E4F47
:1027400013CB13C213CB13C2A12000241B686F4408
:102750001360C00007AB7B60022109AB6844BB601B
:102760003C70FFF741FBB22306AADB009B18554AD9
:1027700006A91D6052183AAB1360B322D20052185A
:1027800057AB1360504A74AB52181360B422D20096
:10279000521891AB13604D4AAEAB52181360B5227C
:1027A000D2005218E8AB1360494ACBAB5218136001
:1027B000B622FFABD200521818331360454AFFAB64
:1027C00052188C331360B722434BD2005218136057
:1027D000424A434B52181360B823019ADB005B183E
:1027E0001A60404B029A5B181A60B923039ADB0007
:1027F0005B181A603C4B049A5B181A60BA23BC251C
:10280000059ADB005B181A60384B1FAE5B181E6020
:10281000374B384A5B18ED006D181C608B182C6024
:102820001C70BB23344ADB005B18BB201A60FA2300
:10283000C0005B004018AC60EC60AB60FEF7DAF9FA
:102840005CE0C0462C430008250300004C43000810
:1028500044050020480500200004004885030000CE
:102860005843000899030000784300083805002009
:102870003C050020FFFFFFFCF90300008443000833
:10288000A4430008B0430008D043000844420008B5
:10289000170400008A590000240600202C0500209F
:1028A000300500202005002024050020140500200C
:1028B00018050020FFFFF3FFFC0400000C050000DA
:1028C00028060020940500009C050000A4050000D7
:1028D000AC050000B4050000D8050020BC050000D0
:1028E000CC050020C4050000CC050000D405000084
:1028F000DC050000E405000038420008E34A06ABAE
:102900009B186C61AC611C70E14B2C622B61E14B3C
:102910006C6206AA9B18BA68DC8411893225198575
:10292000D2889C855A850122DA8597235B00FC5466
:102930003023FF33FC549B18FC54FF3502330798B7
:10294000FC547C55FEF75CFB3000FEF731FCB623EF
:1029500006AADB009B181868CF4A03680FA9DB683A
:102960001292CE4A0F97119298470FA8FDF7CBFF0E
:10297000CB4B06AA9B181868CA4A03680FA9DB68E4
:102980001292C94A0F97119298470FA8FDF7BBFF03
:102990003023FF330093013B02950193C34B06AAFA
:1029A0009B181868FEF740F900282BD1019B06AA56
:1029B000F854009BF854B823DB009B181868FEF706
:1029C0002DF9BB4B06AA9B181868FEF727F9B92307
:1029D00006AADB009B181868FEF720F9B54B06AA7B
:1029E0009B181868FEF71AF90523BE203B70C0003B
:1029F00006ABC018FEF7F7F83800FEF755F83800B8
:102A0000FEF70EF8B72306AADB009B181868FEF73E
:102A10000BF900282AD13B78032B27D1B82306AA2B
:102A2000DB009B181868FEF7F9F8A14B06AA9B1863
:102A30001868FEF7F3F8B92306AADB009B1818689C
:102A4000FEF7ECF89B4B06AA9B181868FEF7E6F811
:102A50000423BE203B70C00006ABC018FEF784F80C
:102A60003800FEF721F83800FDF7DAFF894C06AB95
:102A7000E418E58C0A212800FDF7E0FBB12306AA43
:102A8000DB009B18C9B2197028000A21FDF750FB22
:102A9000894B06AA9B18C0B2187099235B00FB5C97
:102AA0003E78002B33D0BB689D880A212800FDF7B3
:102AB000C5FB824B06AA9B18C9B2197028000A21CF
:102AC000FDF736FB7E4B06AAC0B29B18187033E0A8
:102AD000330001222833E254FFF766FAC32306AA23
:102AE000DB009B18626A9B18764A9B1801221A70B9
:102AF0000523FFF7A3FA02339E1E3688864201D1D2
:102B0000FFF7B0FAFFF7B3FA1900FFF7D0FA012E7A
:102B100001D1658DC9E7042E00D0DFE098235B006A
:102B2000FB5C002B00D1D9E00C23644A06A95218A3
:102B30001370634A52181370634D06AB043EED18D0
:102B4000012E00D904E1594B06AA9B181868FEF71C
:102B50006BF8B72306AADB009B1806001868FEF77F
:102B600063F8304301264640F6B2002E00D1C2E0A1
:102B700098235B00FB5C002B00D1BCE00E232B7084
:102B8000524B06AA9B180B221A703800FEF76BF8FE
:102B9000BB2006ABC000C018FDF7DCFF002800D149
:102BA0001FE198223B785200043B012B00D9F6E04C
:102BB0000123B95C4B40BB543E4B06AA9B181868D6
:102BC000FEF732F8424A06ABD218002800D1E8E0FE
:102BD000012311784B401370B8232E25DB0006AA81
:102BE0009B1818683B78FF35032B00D0DBE0394990
:102BF0007B5D891801220133DBB27B550E7856408C
:102C00000E70062B03D1416803688A409A61B8238D
:102C100006AADB009B181868FEF706F8244A06ABE4
:102C2000D218002808D07B5D0C2B05D1136858689A
:102C30001968012383408B611068FDF7F5FF0028B8
:102C40000CD07B5D122B09D1B92306AADB009B189F
:102C50001B6859681A6801238B4093617B681E4E7C
:102C60005B686422986880B203099C463300002A9E
:102C700000DCB0E051108D005D192868604500D877
:102C8000A7E0521A2B1D013AF1E7C046FC050000EF
:102C900038420008E20500006512000865040008DB
:102CA000B405000019130008A7040008BC050000C3
:102CB000C4050000CC050000890500008405000063
:102CC0008505000094FAFFFF8605000087050000D7
:102CD0008C0500008A050000E4430008BC2306AA16
:102CE000DB009B18186A5B6AC549C01AFDF720FA19
:102CF000013085B2D9E6C34B06AA9B181868FDF7C8
:102D000093FF01235840C0B2002806D03033FF3370
:102D1000FB5C002B01D00C2331E7B72306AADB00B4
:102D20009B181868FDF780FF01235840B64B06AA90
:102D3000C0B29B18002808D098225200BA5C002A22
:102D400003D00C222A7002321EE70C222A701BE7E5
:102D5000B22306AADB009B181B681B78002B06D148
:102D6000A94A06A90D3352182B7013700DE7029B68
:102D7000FB5C002B11D0BB685E880A213000FDF798
:102D80005DFAC9B2297030000A21FDF7D1F99E4BD6
:102D900006AAC0B29B181870F7E6268DEDE700234F
:102DA00009E7107018E70023984A06A952187B55C6
:102DB0001370FDF733FF964B06AA9B181868FDF7B2
:102DC0002DFFB92306AADB009B181868FDF726FF24
:102DD00044E70A004BE78F4A9B1B06A99B10521839
:102DE000D3843878052800D9A0E0FDF78DF9037861
:102DF000A3B0E2F6B2230C2106AADB009B181868E8
:102E0000BB689B7A03704B4383490430C918FEF7B3
:102E10009BFDB22306AADB009B181B6838001B78B9
:102E2000002B59D1FDF715FE7C4B06AA9B1818689C
:102E30007B4A03680FA91B6812927A4A0F97119276
:102E400098470FA8FDF75FFD774B06AA9B181868F7
:102E5000764A03680FA91B681292754A0F97119260
:102E600098470FA8FDF74FFDB32306AADB009B1878
:102E70001868704A03680FA91B6812926E4A0F9770
:102E8000119298470FA8FDF73EFD674B06AA9B18C5
:102E900018686A4A03680FA91B691292684A0F975B
:102EA000119298470FA8FDF72EFDB32306AADB0069
:102EB0009B181868634A03680FA91B691292624A3B
:102EC0000F97119298470FA8FDF71DFD3800FDF7E9
:102ED00031FD01233B7029E0FDF756FDA4E7019B7E
:102EE000FB5C002B22D0B22306AADB009B181B68D8
:102EF0001A78022A1CD13A701B78BA68BE20538116
:102F0000238DBA6806A91381638DBA68C000D38087
:102F1000638D3B4AA3855343BC22D200521840180C
:102F20001362FDF767FE3800FDF7BEFD30BF35E5E3
:102F30000322E0E73800FDF796FE002801D00323C6
:102F40003B70009BFB5C002BF0D10023C2E7019B90
:102F5000FB5C002B07D1BE2006ABC000C018FDF7FC
:102F600003FE04233B70009BFC5C002C06D1BE20BA
:102F700006ABC000C018FDF736FE3C70BC2306AAA5
:102F8000DB009B185A6A1B6A9A42CFD30024BE20EA
:102F9000019BC000FC54009BFC5406ABC018FDF71D
:102FA00022FE2A4B06AA9B181868FEF701F93C700E
:102FB000BCE7009BFB5C002B00D13B70019BFB5CE2
:102FC000002BB3D0BE2006ABC000C018FDF712FE28
:102FD0003800FDF7AFFC03237CE7B72306AADB002C
:102FE0009B181868FDF720FE064B06AA9B180400E4
:102FF0001868FDF719FE002C98D00028A5D195E798
:1030000060EA0000BC050000870500008A0500009A
:10301000C4050000E205000004000020AC0500002B
:1030200081190008BD04000894050000FB10000889
:10303000D304000821110008E90400084711000822
:10304000FF0400086B11000815050008D4050000F6
:10305000002370B583608B6804000D00002B05D041
:1030600002229847EB68E360AB68A360200070BD64
:10307000836810B5002B01D0FEF750FA10BD1FB5C4
:10308000002808D06846FFF7E3FF6846FFF7F0FF27
:103090006846FDF738FC05B000BD0000F0B5C36E12
:1030A00085B00400586EFDF7C9FD002804D1636E99
:1030B000002B07D105B0F0BD236F586EFDF7BEFDA4
:1030C0000028F4D0E36E586EFDF7B8FD002825D037
:1030D000E36E586EFDF7B2FD002803D0236F586EE3
:1030E000FDF7ACFD236F5874E36E5874636E0133C3
:1030F0006366092BDED922006832117800293FD19E
:1031000001232100137014316846FFF7A1FF6846C0
:10311000FFF7AEFF6846FDF7F6FBCBE7236F586E6F
:10312000FDF78CFD0028D3D12500210068352E78CD
:1031300024316846FFF78CFF300026006946FFF710
:103140009EFF6846FDF7DFFB2F786936002F02D01F
:10315000012733785F40210068463431FFF778FF5C
:1031600069463800FFF78BFF6846FDF7CCFB00236C
:10317000E26E63662B7033705374226F537499E759
:10318000064A934296D9230069331A78002A00D060
:1031900090E7210001321A704431B5E7E7030000DF
:1031A00008B4024B9C46043808BC60479D300008B8
:1031B000F0B5C36E85B00400586EFDF73FFD0028E2
:1031C00004D1636E002B07D105B0F0BD236F586E9C
:1031D000FDF734FD0028F4D0E36E586EFDF72EFDA8
:1031E000002825D0E36E586EFDF728FD002803D097
:1031F000236F586EFDF722FD236F5874E36E5874E9
:10320000636E01336366092BDED9220068321178C0
:1032100000293FD101232100137014316846FFF7C4
:1032200017FF6846FFF724FF6846FDF76CFBCBE706
:10323000236F586EFDF702FD0028D3D12500210031
:1032400068352E7824316846FFF702FF30002600EB
:103250006946FFF714FF6846FDF755FB2F7869367E
:10326000002F02D0012733785F40210068463431B7
:10327000FFF7EEFE69463800FFF701FF6846FDF7ED
:1032800042FB0023E26E63662B7033705374226F2F
:10329000537499E7064A934296D9230069331A7802
:1032A000002A00D090E7210001321A704431B5E7BE
:1032B000E703000008B4024B9C46043808BC604792
:1032C000B131000807B583680191002B01D100F0EE
:1032D000F3FEC36801A9984707BD0000F0B50400DC
:1032E00085B0406EFDF7AAFC002802D1A36E002B2A
:1032F00034D0606EFDF7A2FC051E31D12600637C40
:1033000070360700002B00D1377821006846243141
:10331000FFF79EFE380027006946FFF7B0FE6846BB
:10332000FDF7F1FA637C7137002B05D13578002D5C
:1033300002D001253B785D40210068463431FFF71B
:1033400087FE69462800FFF79AFE6846FDF7DBFA1C
:1033500000230122A366E26633703B7005B0F0BD26
:10336000A36E5D1CA566092D24D922007032137846
:10337000002B10D1210001331370657C14315D40A6
:103380006846FFF765FE28006946FFF778FE684645
:10339000FDF7B9FAE2E7234B9D420BD922007132C7
:1033A0001378002B06D1210001331370657C443162
:1033B0005D40E5E7E36D002BD0D0FA26B600B542BC
:1033C000CCD9FA23DB009D420BD8C8212800FCF79A
:1033D00035FF0029C2D1200001215430FFF772FFD0
:1033E000BCE7114B64219D42F0D9FA2332211B0125
:1033F0009D42EBD919212800FCF720FF0B4B9D4281
:10340000E7D90029AAD12000E16E5430FFF75AFF16
:103410003100A06EFCF712FF00299FD1E36E01334B
:10342000E3669BE7E7030000B80B00008813000089
:1034300008B4024B9C46043808BC6047DD320008E3
:10344000F0B5040085B0406EFDF7F8FB002802D10E
:10345000A36E002B34D0606EFDF7F0FB051E31D15A
:103460002600637C70360700002B00D137782100DE
:1034700068462431FFF7ECFD380027006946FFF766
:10348000FEFD6846FDF73FFA637C7137002B05D1DE
:103490003578002D02D001253B785D40210068463B
:1034A0003431FFF7D5FD69462800FFF7E8FD68468F
:1034B000FDF729FA00230122A366E26633703B7010
:1034C00005B0F0BDA36E5D1CA566092D24D92200B0
:1034D00070321378002B10D1210001331370657CFA
:1034E00014315D406846FFF7B3FD28006946FFF7D9
:1034F000C6FD6846FDF707FAE2E7234B9D420BD96C
:10350000220071321378002B06D121000133137091
:10351000657C44315D40E5E7E36D002BD0D0FA26B1
:10352000B600B542CCD9FA23DB009D420BD8C821A6
:103530002800FCF783FE0029C2D12000012154306D
:10354000FFF7C0FEBCE7114B64219D42F0D9FA237E
:1035500032211B019D42EBD919212800FCF76EFE98
:103560000B4B9D42E7D90029AAD12000E16E5430CF
:10357000FFF7A8FE3100A06EFCF760FE00299FD186
:10358000E36E0133E3669BE7E7030000B80B00003E
:103590008813000008B4024B9C46043808BC6047FE
:1035A00041340008F0B5040085B0406EFDF746FBDD
:1035B000002802D1A36E002B34D0606EFDF73EFBD5
:1035C000051E31D12600637C70360700002B00D128
:1035D0003778210068462431FFF73AFD380027008C
:1035E0006946FFF74CFD6846FDF78DF9637C71373E
:1035F000002B05D13578002D02D001253B785D40A8
:10360000210068463431FFF723FD69462800FFF7A3
:1036100036FD6846FDF777F900230122A366E266CE
:1036200033703B7005B0F0BDA36E5D1CA566092D1F
:1036300024D9220070321378002B10D121000133DD
:103640001370657C14315D406846FFF701FD28006A
:103650006946FFF714FD6846FDF755F9E2E7234B8D
:103660009D420BD9220071321378002B06D1210024
:1036700001331370657C44315D40E5E7E36D002B59
:10368000D0D0FA26B600B542CCD9FA23DB009D4251
:103690000BD8C8212800FCF7D1FD0029C2D1200099
:1036A00001215430FFF70EFEBCE7114B64219D420F
:1036B000F0D9FA2332211B019D42EBD919212800B0
:1036C000FCF7BCFD0B4B9D42E7D90029AAD1200095
:1036D000E16E5430FFF7F6FD3100A06EFCF7AEFD51
:1036E00000299FD1E36E0133E3669BE7E703000007
:1036F000B80B00008813000008B4024B9C46043845
:1037000008BC6047A5350008F0B5040085B0406EE0
:10371000FDF794FA002802D1A36E002B34D0606E1E
:10372000FDF78CFA051E31D12600637C7036070048
:10373000002B00D13778210068462431FFF788FC40
:10374000380027006946FFF79AFC6846FDF7DBF86A
:10375000637C7137002B05D13578002D02D001250F
:103760003B785D40210068463431FFF771FC6946C3
:103770002800FFF784FC6846FDF7C5F80023012206
:10378000A366E26633703B7005B0F0BDA36E5D1CAE
:10379000A566092D24D9220070321378002B10D190
:1037A000210001331370657C14315D406846FFF7DA
:1037B0004FFC28006946FFF762FC6846FDF7A3F856
:1037C000E2E7234B9D420BD9220071321378002B84
:1037D00006D1210001331370657C44315D40E5E77B
:1037E000E36D002BD0D0FA26B600B542CCD9FA232F
:1037F000DB009D420BD8C8212800FCF71FFD0029E3
:10380000C2D1200001215430FFF75CFDBCE7114B11
:1038100064219D42F0D9FA2332211B019D42EBD94C
:1038200019212800FCF70AFD0B4B9D42E7D900291E
:10383000AAD12000E16E5430FFF744FD3100A06EA4
:10384000FCF7FCFC00299FD1E36E0133E3669BE7A4
:10385000E7030000B80B00008813000008B4024B17
:103860009C46043808BC604709370008F0B50400DE
:1038700085B0406EFDF7E2F9002802D1A36E002B5F
:1038800034D0606EFDF7DAF9051E31D12600637C75
:1038900070360700002B00D13778210068462431AC
:1038A000FFF7D6FB380027006946FFF7E8FB6846BC
:1038B000FDF729F8637C7137002B05D13578002D91
:1038C00002D001253B785D40210068463431FFF786
:1038D000BFFB69462800FFF7D2FB6846FDF713F8E7
:1038E00000230122A366E26633703B7005B0F0BD91
:1038F000A36E5D1CA566092D24D9220070321378B1
:10390000002B10D1210001331370657C14315D4010
:103910006846FFF79DFB28006946FFF7B0FB684645
:10392000FCF7F1FFE2E7234B9D420BD922007132F5
:103930001378002B06D1210001331370657C4431CC
:103940005D40E5E7E36D002BD0D0FA26B600B54226
:10395000CCD9FA23DB009D420BD8C8212800FCF704
:103960006DFC0029C2D1200001215430FFF7AAFCD0
:10397000BCE7114B64219D42F0D9FA2332211B018F
:103980009D42EBD919212800FCF758FC0B4B9D42B6
:10399000E7D90029AAD12000E16E5430FFF792FC4C
:1039A0003100A06EFCF74AFC00299FD1E36E013381
:1039B000E3669BE7E7030000B80B000088130000F4
:1039C00008B4024B9C46043808BC60476D380008B8
:1039D000F0B5040085B0406EFDF730F9002802D143
:1039E000A36E002B34D0606EFDF728F9051E31D18F
:1039F0002600637C70360700002B00D13778210049
:103A000068462431FFF724FB380027006946FFF79A
:103A100036FB6846FCF777FF637C7137002B05D1D6
:103A20003578002D02D001253B785D4021006846A5
:103A30003431FFF70DFB69462800FFF720FB68468D
:103A4000FCF761FF00230122A366E26633703B703E
:103A500005B0F0BDA36E5D1CA566092D24D922001A
:103A600070321378002B10D1210001331370657C64
:103A700014315D406846FFF7EBFA28006946FFF70E
:103A8000FEFA6846FCF73FFFE2E7234B9D420BD965
:103A9000220071321378002B06D1210001331370FC
:103AA000657C44315D40E5E7E36D002BD0D0FA261C
:103AB000B600B542CCD9FA23DB009D420BD8C82111
:103AC0002800FCF7BBFB0029C2D1200001215430A3
:103AD000FFF7F8FBBCE7114B64219D42F0D9FA23B4
:103AE00032211B019D42EBD919212800FCF7A6FBCE
:103AF0000B4B9D42E7D90029AAD12000E16E54303A
:103B0000FFF7E0FB3100A06EFCF798FB00299FD186
:103B1000E36E0133E3669BE7E7030000B80B0000A8
:103B20008813000008B4024B9C46043808BC604768
:103B3000D1390008F0B5040085B0406EFDF77EF87D
:103B4000002802D1A36E002B34D0606EFDF776F80A
:103B5000051E31D12600637C70360700002B00D192
:103B60003778210068462431FFF772FA38002700C1
:103B70006946FFF784FA6846FCF7C5FE637C713737
:103B8000002B05D13578002D02D001253B785D4012
:103B9000210068463431FFF75BFA69462800FFF7D9
:103BA0006EFA6846FCF7AFFE00230122A366E266C8
:103BB00033703B7005B0F0BDA36E5D1CA566092D8A
:103BC00024D9220070321378002B10D12100013348
:103BD0001370657C14315D406846FFF739FA2800A0
:103BE0006946FFF74CFA6846FCF78DFEE2E7234B87
:103BF0009D420BD9220071321378002B06D121008F
:103C000001331370657C44315D40E5E7E36D002BC3
:103C1000D0D0FA26B600B542CCD9FA23DB009D42BB
:103C20000BD8C8212800FCF709FB0029C2D12000CD
:103C300001215430FFF746FBBCE7114B64219D4244
:103C4000F0D9FA2332211B019D42EBD9192128001A
:103C5000FCF7F4FA0B4B9D42E7D90029AAD12000CA
:103C6000E16E5430FFF72EFB3100A06EFCF7E6FA50
:103C700000299FD1E36E0133E3669BE7E703000071
:103C8000B80B00008813000008B4024B9C460438AF
:103C900008BC6047353B000873B56B4604001A004A
:103CA00060CC60C20A0030CA30C005CB05C173BD0C
:103CB0001FB504006846FFF7CBF921006846FFF7FF
:103CC000EBFF029BA268A360039B0292E268684636
:103CD000E3600392FCF717FE200004B010BD10B59E
:103CE0004430FFF7E5FF10BD10B53430FFF7E0FFBB
:103CF00010BD10B52430FFF7DBFF10BD10B5143038
:103D0000FFF7D6FF10BD10B54430FFF7D1FF10BD4F
:103D100010B53430FFF7CCFF10BD10B52430FFF7DD
:103D2000C7FF10BD10B51430FFF7C2FF10BD10B5AE
:103D30004430FFF7BDFF10BD10B53430FFF7B8FFBA
:103D400010BD10B52430FFF7B3FF10BD10B514300F
:103D5000FFF7AEFF10BD10B54430FFF7A9FF10BD4F
:103D600010B53430FFF7A4FF10BD10B52430FFF7B5
:103D70009FFF10BD10B51430FFF79AFF10BD10B5AE
:103D80004430FFF795FF10BD10B53430FFF790FFBA
:103D900010BD10B52430FFF78BFF10BD10B51430E7
:103DA000FFF786FF10BD10B54430FFF781FF10BD4F
:103DB00010B53430FFF77CFF10BD10B52430FFF78D
:103DC00077FF10BD10B51430FFF772FF10BD10B5AE
:103DD0004430FFF76DFF10BD10B53430FFF768FFBA
:103DE00010BD10B52430FFF763FF10BD10B51430BF
:103DF000FFF75EFF10BD10B54430FFF759FF10BD4F
:103E000010B53430FFF754FF10BD10B52430FFF764
:103E10004FFF10BD10B51430FFF74AFF10BD10B5AD
:103E20004430FFF745FF10BD10B53430FFF740FFB9
:103E300010BD10B52430FFF73BFF10BD10B5143096
:103E4000FFF736FF10BD002330B587B004938B68B1
:103E500004000D00002B07D0022202A89847EB684F
:103E60000593AB6801930493210002A8FFF714FFA8
:103E7000049BA268A360059B0492E26802A8E36029
:103E80000592FCF740FD200007B030BD10B554305E
:103E9000FFF7D9FF10BD10B55430FFF7D4FF10BDA8
:103EA00010B55430FFF7CFFF10BD10B55430FFF7F9
:103EB000CAFF10BD10B55430FFF7C5FF10BD10B5D7
:103EC0005430FFF7C0FF10BD10B55430FFF7BBFFF3
:103ED00010BD10B55430FFF7B6FF10BD10B554300B
:103EE000FFF7B1FF10BD000070B5012200243C4B6C
:103EF00002251C605C609C605A61DC601C61394B6F
:103F00001968914319603849596004219C60186808
:103F100001431960196835482943196019680A4333
:103F20001A6084222100520000F00BF91922304B54
:103F30001D711C602F4B1C601A712F4B52191C6095
:103F40001A712E4B0E3A1C601A712D4B03321C60F5
:103F50001A712C4B073A1C601A712B4B01321C60F2
:103F60001A712A4B1C601A71294B01321C601A719C
:103F7000284B1C601A71284B063A1C601A71274B9B
:103F80001A711C60264B01321A711C60254B1A7184
:103F90001C600723244A14601371244A14601371AF
:103FA000234A14601371234A14601371224A146067
:103FB0001371224A14601371214A14601371214A4B
:103FC00014601371204A14601371204A1460137135
:103FD0001F4A146013711F4A1460137170BDC046EC
:103FE0004C08002010E000E07FBB000074060020B9
:103FF000240800202C080020440800203408002059
:104000003C0800207C070020840700208C0700204B
:10401000940700209C070020A4070020AC07002084
:10402000E4070020EC070020F4070020FC07002034
:10403000040800200C080020140800201C080020A0
:10404000B4070020BC070020C4070020CC070020D4
:10405000D4070020DC0700200D4885460D480E4996
:104060000E4A002302E0D458C4500433C4188C42D2
:10407000F9D30B4A0B4C002301E013600432A24237
:10408000FBD3FDF7A3F900F02FF8FDF735FFFEE7AE
:1040900000100020000000202C040020984500089B
:1040A0002C04002068080020FEE70B0010B501007A
:1040B000180000F00BF810BD10B500F000F810B5B6
:1040C000062000F071F8012000F09EF810B5040001
:1040D00004481300002804D00A000220210000E058
:1040E00000BF10BD0000000070B500260C4D0D4C47
:1040F000641BA410A64209D1002600F087F80A4DDF
:104100000A4C641BA410A64205D170BDB300EB5845
:1041100098470136EEE7B300EB5898470136F2E7CF
:104120008C4500088C4500088C4500089445000823
:10413000002310B59A4200D110BDCC5CC4540133A9
:10414000F8E703001218934200D170471970013349
:10415000F9E770B504000D001F2904D91623036088
:104160000120404270BD436C002B04D08A009B1894
:104170001A68002A08D1200000F032F82A00010055
:10418000200000F01BF8EDE70020012AEAD0511CC6
:1041900003D1162301302360E4E7002428001C60CB
:1041A00090472000DEE7000010B5034B01001868BF
:1041B000FFF7CFFF10BDC046C8030020002370B535
:1041C000064C050008001100236000F015F8431CA0
:1041D00003D12368002B00D02B6070BD6408002041
:1041E00010B500F001F810BD58220120014B4042EB
:1041F0001A6070476408002058220120014B404299
:104200001A60704764080020FEE7C046F8B5C04653
:10421000F8BC08BC9E467047F8B5C046F8BC08BC60
:044220009E467047FF
:1042240005006300630000001400000000000000AB
:10423400000000003104000800000000000000003D
:10424400A90B00080000000000000000FD3C00086D
:10425400F33C0008E93C0008DF3C00088D3E000800
:104264006D380008FCFFFFFF00000000C1390008A2
:104274000000000000000000253D00081B3D000870
:10428400113D0008073D0008973E00080937000863
:10429400FCFFFFFF000000005D3800080000000084
:1042A400000000004D3D0008433D0008393D000872
:1042B4002F3D0008A13E0008A5350008FCFFFFFFC4
:1042C40000000000F93600080000000000000000B3
:1042D400753D00086B3D0008613D0008573D00082E
:1042E400AB3E000841340008FCFFFFFF0000000063
:1042F4009535000800000000000000009D3D000806
:10430400933D0008893D00087F3D0008B53E000844
:10431400353B0008FCFFFFFF00000000893C00085B
:104324000000000000000000C53D0008BB3D00087F
:10433400B13D0008A73D0008BF3E0008D139000880
:10434400FCFFFFFF00000000253B00080000000008
:1043540000000000ED3D0008E33D0008D93D0008E1
:10436400CF3D0008C93E0008DD320008FCFFFFFF16
:1043740000000000313400080000000000000000CC
:10438400153E00080B3E0008013E0008F73D0008FA
:10439400D33E0008B1310008FCFFFFFF000000001D
:1043A400B532000800000000000000003D3E000897
:1043B400333E0008293E00081F3E0008DD3E000889
:1043C4009D300008FCFFFFFF00000000A131000841
:1043D4000000000000000000A90C00081A190000E9
:1043E400FE0D0000E40D0000C90D0000AD0D00003D
:1043F4008F0D0000770D0000590D0000390D0000ED
:10440400190D0000F70C0000DB0C0000B80C0000D4
:10441400950C0000700C00004B0C00002B0C0000ED
:10442400040C0000DC0B0000B40B00008A0B00003D
:10443400690B00003F0B0000150B0000E90A0000A7
:10444400BD0A0000980A00006C0A00003F0A000040
:10445400110A0000E3090000BE09000090090000F1
:10446400610900003209000002090000DB080000B5
:10447400AD0800007E0800004F080000200800007E
:10448400FA070000CD070000A00700007307000032
:104494004607000022070000F6060000CB060000D5
:1044A400A006000075060000530600002A0600005E
:1044B40002060000DA050000B205000092050000C3
:1044C4006C0500004605000022050000FD04000004
:1044D400E0040000BE0400009C0400007B04000013
:1044E4005A040000400400002104000003040000FA
:1044F400E5030000C8030000B103000096030000B8
:104504007B03000061030000470300003303000045
:104514001B03000004030000ED020000D6020000AB
:10452400C5020000B00200009B02000087020000E8
:104534007402000065020000530200004202000001
:10454400300200001F0200001302000003020000FA
:10455400F4010000E5010000D5010000CB010000DA
:10456400BD010000B0010000A3010000960100009D
:1045740000000000000000002F15000800000000EB
:0845840000000000B906000868
:08458C00E9000008E93E000807
:04459400C10000085A
:104598000000000000000000000000000100000012
:1045A8000000000001000000000000000100000001
:1045B80000000000000000000100000000000000F2
:1045C80000000000000000000000000000000000E3
:1045D80000000000010000000100000001000000D0
:1045E80001000000000000000000000001000000C1
:1045F80000000000010000000000000000000000B2
:1046080001000000000000000000000000000000A1
:104618000100000001000000000000000000000090
:104628000000000000000000000000000000000082
:104638000100000001000000000000000000000070
:104648000100000000000000000000000100000060
:104658000000000000000000010000000000000051
:104668000000000000000000000000000000000042
:104678000000000001000000000000000100000030
:10468800010000000100000001000000000000001F
:104698000000000000000000000000000000000012
:1046A8000000000000000000000000000000000002
:1046B80000000000000000000000000001000000F1
:1046C80000000000000000000000000000000000E2
:1046D80000000000000000000000000001000000D1
:1046E80000000000000000000100000001000000C0
:1046F80000000000000000000000000001000000B1
:10470800010000000100000001000000010000009D
:10471800010000000100000001000000010000008D
:10472800010000000000000001000000010000007E
:10473800010000000100000001000000010000006D
:104748000100000000000000000000000000000060
:10475800010000000100000000000000010000004E
:10476800010000000100000001000000010000003D
:10477800010000000100000001000000010000002D
:10478800010000000100000001000000010000001D
:10479800010000000100000001000000010000000D
:1047A80001000000010000000100000001000000FD
:1047B80001000000010000000100000001000000ED
:1047C80001000000010000000100000001000000DD
:1047D80001000000010000000100000001000000CD
:1047E80001000000010000000100000001000000BD
:1047F80001000000010000000100000001000000AD
:10480800010000000000000001000000010000009D
:10481800010000000100000001000000010000008C
:10482800000000000100000001000000010000007D
:10483800010000000000000001000000000000006E
:10484800010000000100000001000000010000005C
:10485800010000000000000000000000000000004F
:10486800010000000100000001000000010000003C
:10487800010000000000000001000000000000002E
:10488800010000000100000001000000010000001C
:10489800000000000100000001000000000000000E
:1048A80001000000010000000100000000000000FD
:1048B80001000000010000000100000000000000ED
:1048C80001000000010000000100000000000000DD
:1048D80000000000000000000000000000000000D0
:1048E80000000000010000000000000000000000BF
:1048F80000000000000000000000000000000000B0
:10490800010000000000000000000000000000009E
:10491800000000000000000000000000010000008E
:10492800000000000000000000000000000000007F
:10493800000000000000000001000000000000006E
:10494800000000000000000000000000000000005F
:104958000000000001000000CC030020000000005F
:10496800000000000000000000000000000000003F
:10497800000000000000000000000000000000002F
:10498800000000000000000000000000000000001F
:10499800000000000000000000000000000000000F
:1049A80000000000000000000000000000000000FF
:0C49B800000000000000000000000000F3
:040000050800405956
:00000001FF
