:020000040800F2
:1000000000100020C1210008112200081122000860
:1000100000000000000000000000000000000000E0
:100020000000000000000000000000001122000895
:10003000000000000000000011220008F505000883
:1000400011220008000000001122000811220008FF
:1000500011220008F90600082D07000861070008B2
:1000600000000000410600085D060008890600083F
:10007000112200088D060008AD06000800000000EF
:10008000B50600080000000000000000D5060008CA
:1000900000000000D7060008D90600081122000859
:1000A000000000001122000800000000DD0600082A
:1000B0000000000000000000000000000000000040
:1000C00010B5064C2378002B07D1054B002B02D02E
:1000D000044800E000BF0123237010BD6800002029
:1000E0000000000074230008044B10B5002B03D05F
:1000F0000349044800E000BF10BDC04600000000F6
:100100006C0000207423000803B4714649084000C5
:100110004900095A49008E4403BC70470022430835
:100120008B4274D303098B425FD3030A8B4244D3BF
:10013000030B8B4228D3030C8B420DD3FF22090201
:1001400012BA030C8B4202D31212090265D0030BC0
:100150008B4219D300E0090AC30B8B4201D3CB03B6
:10016000C01A5241830B8B4201D38B03C01A5241F8
:10017000430B8B4201D34B03C01A5241030B8B42FA
:1001800001D30B03C01A5241C30A8B4201D3CB02E5
:10019000C01A5241830A8B4201D38B02C01A5241CA
:1001A000430A8B4201D34B02C01A5241030A8B42CD
:1001B00001D30B02C01A5241CDD2C3098B4201D3E5
:1001C000CB01C01A524183098B4201D38B01C01A63
:1001D000524143098B4201D34B01C01A52410309DA
:1001E0008B4201D30B01C01A5241C3088B4201D389
:1001F000CB00C01A524183088B4201D38B00C01A36
:10020000524143088B4201D34B00C01A5241411A5C
:1002100000D20146524110467047FFE701B5002069
:1002200000F006F802BDC0460029F7D076E7704717
:100230007047C0461F2318401E3B8340014A13608D
:100240007047C04600E100E00B1A9B10002B14DD44
:100250000278002A03D04278002A01D10130704789
:100260008278002A01D10230F9E7C278002A01D150
:100270000330F4E70430013BE8E70B1A022B0CD003
:10028000032B06D0012B02D10378002BE7D0080006
:10029000E5E70378002BE2D001300378002BDED0B5
:1002A0000130F1E70B1A9B10002B14DD0278002AB5
:1002B00003D14278002A01D0013070478278002AA9
:1002C00001D00230F9E7C278002A01D00330F4E708
:1002D0000430013BE8E70B1A022B0CD0032B06D0AD
:1002E000012B02D10378002BE7D10800E5E7037862
:1002F000002BE2D101300378002BDED10130F1E791
:1003000010B50400002C05D0236820001B68984716
:100310006468F7E710BD000003691B0603D5024BB4
:100320004360024B4360704723016745AB89EFCDC3
:1003300001220369934303610223026913430361AA
:1003400080239B02C918402389024161026913433B
:1003500003617047F8B505003D350400466928780B
:10036000C0B205281AD8FFF7CFFE06001A003900E0
:100370007300BC00EE00220040321378E118F05CFC
:10038000097E884200D0FAE00133DBB2012B00D9AC
:100390000023137001223C349A432270F8BD206977
:1003A000C368DB07FAD403691B06F7D5FFF7B4FF70
:1003B000022123691A698A431A61012218690243DA
:1003C0001A61230040331A78013BB05C18701B7827
:1003D000A06B1B02134303802970DFE72369DA68EF
:1003E0009206DBD52022D9680A43DA608022196997
:1003F0000A431A612100230040313F331A780B78F9
:10040000E3181A76A36B981CE369A063DA00A218BC
:10041000D66A7700966A2200F6193E32B04203D0BF
:100420001378DBB22B70B9E70126E01801309B1975
:10043000C677B34200D90023E361DB00E3189B6A6F
:10044000A36300230B7001332B7004331370A5E7F3
:100450002069C368DB07A1D403691B069ED523006E
:10046000210020331E002231CA1A9210002A20DDFA
:100470001F78002F03D15F78002F0DD001339942F0
:1004800021D09B1B6362FFF747FF636A3D4AD15C43
:10049000FFF74EFF0423C5E79F78002F01D00233FA
:1004A000EDE7DF78002F01D00333E8E70433013AAA
:1004B000DCE7CA1A022A0DD0032A07D0012A0ED17E
:1004C0001A78002ADBD13E342378AAE71A78002A6A
:1004D000D5D101331A78002AD1D10133F0E70B00CE
:1004E000CDE72369DA68920600D457E72022D9685D
:1004F000254E0A43DA60802219690A431A61616A4B
:10050000CB00E3189A6ADB6A5B00D31810009342B1
:1005100017D00232971E3F88B742F7D01B1A260029
:1005200062182000591E8B4101322236D3772030C9
:100530003100FFF7B7FE0323864200D072E70023A5
:1005400070E71800EAE72200403213780133DBB28B
:10055000012B11D900231370260020002236310010
:100560002030FFF79FFE0323864200D100232B702B
:1005700000233E34237011E71370002BECD00123CD
:1005800050E7C046C0240008FFFF000010B5046813
:10059000002C05D0236820001B689847A468F7E763
:1005A00010BD10B583680400002B02D003220100A7
:1005B0009847200010BD000010B50400034B08331D
:1005C00003603030FFF7EDFF200010BD5426000817
:1005D00010B504000830FFF7D9FF20696169431C9A
:1005E0002361FFF721FE002902D12000FFF7CEFF93
:1005F00010BD000010B50248FFF7EAFF10BDC0466D
:1006000090030020037B002B0CD101330373064BB6
:100610005A684260002A00D090601A685860002A28
:1006200000D118607047C0469003002003684268FC
:10063000012090401B691840431E9841C0B270478A
:10064000044B10B51868FFF75BFE0122024B5A609D
:1006500010BDC046C002002000000240074B10B58C
:100660001868FFF74DFE1023054C6360054B1868B2
:10067000FFF746FE80235B00636010BDC8020020C8
:1006800000000240D0020020FEE70000054B10B53C
:100690001868FFF735FE0121034A138A8B43138242
:1006A00010BDC04678030020002C014010B5FFF7B4
:1006B000EDFF10BD054B10B51868FFF721FE0121B5
:1006C000034A138A8B43138210BDC0468003002067
:1006D00000040040FEE7FEE7FEE70000044B10B513
:1006E0001868FFF70DFE0122024B52421A6210BD3C
:1006F000880300200038014010B5094C6369DB070E
:1007000003D5084B1868FFF7FBFD63699B0703D50A
:10071000054B1868FFF7F4FD0323636110BDC04665
:1007200000040140E8020020F002002010B5094C4E
:1007300063695B0703D5084B1868FFF7E1FD636940
:100740001B0703D5054B1868FFF7DAFD0C2363611F
:1007500010BDC046000401402803002030030020E3
:1007600010B52C4C6369DB0603D52B4B1868FFF7DB
:10077000C7FD63699B0603D5284B1868FFF7C0FDCA
:1007800063695B0603D5264B1868FFF7B9FD6369FB
:100790001B0603D5234B1868FFF7B2FD6369DB0521
:1007A00003D5214B1868FFF7ABFD63699B0503D5A3
:1007B0001E4B1868FFF7A4FD63695B0503D51C4B4E
:1007C0001868FFF79DFD63691B0503D5194B186871
:1007D000FFF796FD6369DB0403D5174B1868FFF735
:1007E0008FFD63699B0403D5144B1868FFF788FDE0
:1007F00063695B0403D5124B1868FFF781FD6369D9
:100800001B0403D50F4B1868FFF77AFD0E4B63618D
:1008100010BDC04600040140380300204003002002
:1008200048030020500300205803002060030020EC
:10083000F80200200003002008030020100300201D
:100840001803002020030020F0FF00000122436A6B
:1008500019680A431A601A68D207FCD5036A1A6835
:10086000D20703D5012219680A431A600122996848
:100870000A439A601A68D207FCD5042299680A4391
:100880009A607047F021114B5A688A435A605A683F
:100890000F490A4003215A605A688A431100022214
:1008A0000A435A605A680B490A405A605A680A4912
:1008B0001140A02292030A435A6080221968520410
:1008C0000A431A601A689201FCD570470010024072
:1008D000FFF8FFFFFFFFFEFFFFFFC3FF836810B5B8
:1008E000002B01D101F09CFCC368984710BD70B586
:1008F000846800222300002B02D09A605B68FAE72C
:1009000022004369590003695918994209D0966831
:100910001D88751995605268002A00D122000233A3
:10092000F3E7836B002B02D03030FFF7D7FF70BDA9
:1009300001233B4970B50A683A4C134023D1A061AA
:100940000F20394AA36008322260384AE3602262ED
:10095000374A63606262374A23616361E361A3637C
:100960001368A262E062002B02D1146004E013005D
:100970005A68002AFBD15C6001232F4A0B602000DB
:100980002E4901F046FC802318212D489B008269E6
:10099000012513438361236A8026DA6836068A4379
:1009A000DA608022D96892010A430221DA60DA68AB
:1009B0002A43DA60DA680A43DA601A698A40CA4070
:1009C00032431A6107225E6932435A6142694033F9
:1009D000154345611020626A936013688343136076
:1009E0001368184818408023DB0003431360136822
:1009F0001548184080235B00034313608023106870
:100A00000343136013680420194320231160116805
:100A10000B431360A36A1856FFF70CFC200070BD4F
:100A200074010020780100205426000800240140B1
:100A300008000240C002002000000020B9050008A4
:100A400000100240FFF3FFFFFFFCFFFFF0B50124A1
:100A50004B4D4C4B2A68224220D14B4E4B4A3168B9
:100A6000214004D19027FF05176051603460802138
:100A7000474C8902666931430326616111680C683D
:100A800034430C60CC68B443CC60DA6001220021AE
:100A900052421A610232196059602A60C26A0F2AF2
:100AA00004D1016A0E3A8C6A22438A62002281686C
:100AB0001A610A00002A5BD01469002C53DC5268CA
:100AC000F8E75960C2688360002A00D1C3600569F5
:100AD00082693049002D0DD00E00FC367468043D4B
:100AE0002F68043CE41B0F19BD4235D00C000125D2
:100AF000FF34657144691219274C4261A2422DD816
:100B000052000E00FC3674680D190434A418746089
:100B100080267600B44224D8FF314979002920D1BB
:100B2000002D00D004C50121426A056114688C4380
:100B300014604069D56080B2506010680143116054
:100B40001168C907FCD51800F0BD11685A6019601A
:100B500013601A685360BAE77460CBE7012252420F
:100B6000CFE70025DFE79142EFD159600B60A9E79D
:100B70000029A6D0C2681A60002AA7D05360A5E752
:100B800084000020880000209C000020A00000209D
:100B900000100240B8010020FCFFFF3F0122774B0C
:100BA000F0B51C68144206D190247549E4050C6028
:100BB00002241A604C608022724B30265C699202DB
:100BC000224310245A616E4A12681568B5432C43BB
:100BD00001251460D468B443D4606B4A6B4C16682A
:100BE0002E4205D19026F605266003261560666024
:100BF00080225D69C02692022A4340255A612268FC
:100C00001768B7433D431560D568B543D560604A62
:100C1000BF3E17685F4D374205D19027FF052F6013
:100C2000042716606F6080225E69920232435A6127
:100C30002A68594F1668BC463E4080277F003743DC
:100C400017606746D6683E400127D660534E544A27
:100C50003168394205D19021C905116005213760FD
:100C6000516080265F69B6023E4380275E6112684C
:100C70004C491668FF000E40374317600127D668BD
:100C80000E40D660484E494A3168394204D148493D
:100C9000376011600E21516080265F69F6023E4385
:100CA00080275E611268434916687F050E4037430E
:100CB00017600127D6680E40D6603F4E3F4A316824
:100CC000394204D13A49376011600F2151608026C2
:100CD0005F69F6023E4380275E611668FF05326851
:100CE000920092083A4301273260F268920092081B
:100CF000F260334E334A3168394205D19021C9053B
:100D0000116009213760516080265F69B6023E4359
:100D100080275E6112682C491668FF020E40374337
:100D20001760D6680E40D6600126284A1168314205
:100D300005D1274F27491660396006217960802246
:100D40005E69D20332438026214F5A613B682249B3
:100D50001A6876010A4016431E60DA680A40DA60B3
:100D6000184B07604360154B456183600F4B8461EE
:100D7000C3600B4B0361024BC361F0BD5001002007
:100D800054010020001002404401002048010020CE
:100D9000380100203C010020FFFCFFFF2C01002057
:100DA00030010020FFF3FFFF20010020240100207C
:100DB00000040048FFFFFFCF1401002018010020AD
:100DC000080100200C010020FFFFF3FFFC000020C1
:100DD0000001002000140048FFCFFFFFF0B5002500
:100DE000264C274FA54402AB1F80264B0EAC083380
:100DF0000E93254B8022A3621C931DAB1D706D23A7
:100E00009200E262626302AA9B181D706E239B1817
:100E10001D701EAB1D7001231C491D485B4265609F
:100E2000A5602573216323832061E56125846562C4
:100E30006261958018AEFFF76FFA0197736803A897
:100E40005A0033689A189A420ED01978012907D8A7
:100E50005F7861180F760127197847540233F2E75B
:100E600019880C4FB942F9D11C9332689A4213D1B8
:100E7000E5610836012D1ED00125DFE754FCFFFF98
:100E800002050000602600080068000800640008F1
:100E900000200240FFFF0000716849005218934291
:100EA00000D1A9E202AB9F1DE561390003A8FFF75D
:100EB000CBF9B842DDD1E369DA00A218D16A926AAF
:100EC00049005218A16B914209D1EAAAD318E94A04
:100ED0009B1801221A700023E361189B1C9302AB3C
:100EE0009D1D290003A8FFF7AFF90600A84200D016
:100EF00087E2022214A9606901F0CEF900236E2175
:100F000002AA52181370502202AB9B181B78002BB8
:100F100014D1E369002B11D0E36AD7485A00189B1B
:100F200019009A180B008A4200D073E213009B1A32
:100F300050215A1E934102AA52181370512202AB3B
:100F40009B181B78002B16D1E369012B13D0636B20
:100F50001A9A5B00C848D3181100934204D0023299
:100F6000971E3F888742F7D05B1A51215A1E934142
:100F700002AA52181370522702ABFF18390016A8A4
:100F8000FFF790F9B84204D06D2302AA9B18032200
:100F90001A708023226911690B431361AE4202D09B
:100FA000019A02AB1A802000FFF72CFB0121B34A03
:100FB000B34B1068084204D1B248116018600E208B
:100FC00058608022B04C12036169B0480A436261E4
:100FD0001B681968014019600121DA680240DA6073
:100FE000AB4AAC4B1068084204D1A64811601860A7
:100FF0000D2058608022616912030A4362611B68F8
:10100000A54E1A6806A832401A60DA683240DA60E3
:10101000FFF7C4FD8421002302AA521813709F4ACF
:1010200001311F929E4A2193209202AA52181370F6
:101030009C4A84391068229326932A932E933293E4
:101040003693994B084204D19848116018600520E6
:10105000586080226169D2020A4362611A68944D25
:101060001068012728401060D16820A82940002579
:10107000D16038933BAB1D70E52302AA9B181D700D
:1010800039953A97FFF7BEFAF82202AB9B181D700C
:10109000884BD2193C93884B3E953D9302AB9B18ED
:1010A000864A1D7011683F95439547954B954F951E
:1010B0005395834B394204D17C4917601960042150
:1010C000596080226169D2020A4362611A687D4DCB
:1010D0001068012728401060D1683DA829400025EC
:1010E000D160559358AB1D705A2302AAFF339B1849
:1010F0001D7056955797FFF785FAB62202AB52003E
:101100009B186E221D70704BFF3259936F4B5B958D
:101110005A9302AB9B186E4A1D7011685C956095DE
:10112000649568956C9570956A4B394205D190210C
:10113000C90519600B21176059608022616992020C
:101140000A4362611A68644D1068012728401060E4
:10115000D1685AA829400025D160729375AB1D70E3
:10116000CE2302AAFF339B181D7073957497FFF767
:1011700049FA5A4A5A49769208685A4A76AB5A60EE
:101180009D60DD601D745D74DD61DD62DD63DD64C5
:10119000DD65554A384205D19020C00510600A200F
:1011A0000F605060802160698902014361611568A8
:1011B0004E4F286838402860E96877A83940E960D0
:1011C000012700255A669D66DF6692AB1D70484B6D
:1011D00002AA9B181D70FFF715FA464A46499392DA
:1011E0000868464A93AB5A609D60DD601D745D746B
:1011F000DD61DD62DD63DD64DD65414A384204D1D5
:1012000040480F6010600720506080216069C9036A
:101210000143616115683C4F286838402860E968DF
:1012200094A83940E960012700255A669D66DF666B
:10123000AFAB1D70354B02AA9B181D70FFF7E2F98A
:10124000334A3449B0920868334AB0AB5A609D6063
:10125000DD601D745D74DD61DD62DD63DD64DD65AF
:101260002E4A38425CD111480F6010600D2050604A
:1012700056E0C046B0FCFFFFFFFF00006801002001
:101280006C0100200008004800100240FFFFFFCF63
:101290005C01002060010020FFFFFFF394230008A1
:1012A000B4230008F0000020F400002000040048EF
:1012B000FFF3FFFFC0230008E0230008E400002044
:1012C000E8000020FFFCFFFFEC2300080C240008CE
:1012D000D8000020DC000020FFFF3FFF182400089A
:1012E000CC00002038240008D0000020FFFFCFFFF2
:1012F0004102000044240008C000002064240008CB
:10130000C400002000140048FF3FFFFFB5020000AA
:1013100070240008B400002090240008B8000020C9
:1013200080216069C9020143616111680025086874
:1013300030400860C8680640CE6001265A669D6647
:10134000DE66CCAB1D70394B02AA9B18B1A81D708C
:10135000FFF758F9364A3749CD920868364ACDAB7F
:101360005A609D60DD601D745D74DD61DD62DD636A
:10137000DD64DD65314A304205D19020C005106042
:101380000C200E6050608021606989020143616118
:1013900011682B4D0C682C400C60C8682840C86050
:1013A0005A6601210022D9669A66E9AB1A70254B6C
:1013B00002A95B18CEA81A70FFF724F91020FFF7D6
:1013C000B7FA0400FFF742FB05902000FFF73EFA52
:1013D00064201D4C059B26009A68030092B21209F6
:1013E000002B20DD5D10A90071180F68974218D9F5
:1013F0005B1B0E1D013BF3E72B0001222033E2545F
:1014000037E5E269EAAB9B18104A9B1801221A7073
:10141000052374E502318F1E3F88874200D181E5A4
:1014200085E52B00DCE730BFD4E7C0462903000088
:101430009C240008A8000020BC240008AC00002068
:10144000FFFFFFFC9D030000C4240008B0FCFFFF69
:10145000002370B583608B6804000D00002B05D05D
:1014600002229847EB68E360AB68A360200070BD80
:101470001FB500280BD06846FFF7EAFF029B002B40
:1014800002D06846FFF72AFA6846FFF78AF805B0E7
:1014900000BD07B583680191002B01D100F0C0FEAB
:1014A000C36801A9984707BDF0B5040085B0406E38
:1014B000FFF7BCF8002802D1A36E002B34D0606E79
:1014C000FFF7B4F8051E31D12600637C70360700A3
:1014D000002B00D13778210068462431FFF7B8FF90
:1014E000380027006946FFF7C3FF6846FFF759F841
:1014F000637C7137002B05D13578002D02D0012592
:101500003B785D40210068463431FFF7A1FF694612
:101510002800FFF7ADFF6846FFF743F800230122DC
:10152000A366E26633703B7005B0F0BDA36E5D1C30
:10153000A566092D24D9220070321378002B10D112
:10154000210001331370657C14315D406846FFF75C
:101550007FFF28006946FFF78BFF6846FFF721F8F9
:10156000E2E7234B9D420BD9220071321378002B06
:1015700006D1210001331370657C44315D40E5E7FD
:10158000E36D002BD0D0FA26B600B542CCD9FA23B1
:10159000DB009D420BD8C8212800FEF745FE00293C
:1015A000C2D1200001215430FFF773FFBCE7114B7B
:1015B00064219D42F0D9FA2332211B019D42EBD9CF
:1015C00019212800FEF730FE0B4B9D42E7D9002978
:1015D000AAD12000E16E5430FFF75BFF3100A06E0E
:1015E000FEF722FE00299FD1E36E0133E3669BE7FD
:1015F000E7030000B80B00008813000008B4024B9A
:101600009C46043808BC6047A9140008F0B50400E3
:1016100085B0406EFFF70AF8002802D1A36E002BB8
:1016200034D0606EFFF702F8051E31D12600637CCE
:1016300070360700002B00D137782100684624312E
:10164000FFF706FF380027006946FFF711FF6846DD
:10165000FEF7A7FF637C7137002B05D13578002D8D
:1016600002D001253B785D40210068463431FFF708
:10167000EFFE69462800FFF7FBFE6846FEF791FF84
:1016800000230122A366E26633703B7005B0F0BD13
:10169000A36E5D1CA566092D24D922007032137833
:1016A000002B10D1210001331370657C14315D4093
:1016B0006846FFF7CDFE28006946FFF7D9FE684669
:1016C000FEF76FFFE2E7234B9D420BD922007132F8
:1016D0001378002B06D1210001331370657C44314F
:1016E0005D40E5E7E36D002BD0D0FA26B600B542A9
:1016F000CCD9FA23DB009D420BD8C8212800FEF785
:1017000093FD0029C2D1200001215430FFF7C1FE12
:10171000BCE7114B64219D42F0D9FA2332211B0111
:101720009D42EBD919212800FEF77EFD0B4B9D420F
:10173000E7D90029AAD12000E16E5430FFF7A9FEB5
:101740003100A06EFEF770FD00299FD1E36E0133DA
:10175000E3669BE7E7030000B80B00008813000076
:1017600008B4024B9C46043808BC60470D160008BC
:10177000F0B5040085B0406EFEF758FF002802D196
:10178000A36E002B34D0606EFEF750FF051E31D1E2
:101790002600637C70360700002B00D137782100CB
:1017A00068462431FFF754FE380027006946FFF7EA
:1017B0005FFE6846FEF7F5FE637C7137002B05D1AE
:1017C0003578002D02D001253B785D402100684628
:1017D0003431FFF73DFE69462800FFF749FE6846B1
:1017E000FEF7DFFE00230122A366E26633703B7042
:1017F00005B0F0BDA36E5D1CA566092D24D922009D
:1018000070321378002B10D1210001331370657CE6
:1018100014315D406846FFF71BFE28006946FFF75C
:1018200027FE6846FEF7BDFEE2E7234B9D420BD93B
:10183000220071321378002B06D12100013313707E
:10184000657C44315D40E5E7E36D002BD0D0FA269E
:10185000B600B542CCD9FA23DB009D420BD8C82193
:101860002800FEF7E1FC0029C2D1200001215430FC
:10187000FFF70FFEBCE7114B64219D42F0D9FA231C
:1018800032211B019D42EBD919212800FEF7CCFC27
:101890000B4B9D42E7D90029AAD12000E16E5430BC
:1018A000FFF7F7FD3100A06EFEF7BEFC00299FD1C7
:1018B000E36E0133E3669BE7E7030000B80B00002B
:1018C0008813000008B4024B9C46043808BC6047EB
:1018D00071170008F0B5040085B0406EFEF7A6FE53
:1018E000002802D1A36E002B34D0606EFEF79EFE5E
:1018F000051E31D12600637C70360700002B00D115
:101900003778210068462431FFF7A2FD3800270010
:101910006946FFF7ADFD6846FEF743FE637C71370D
:10192000002B05D13578002D02D001253B785D4094
:10193000210068463431FFF78BFD69462800FFF728
:1019400097FD6846FEF72DFE00230122A366E2669E
:1019500033703B7005B0F0BDA36E5D1CA566092D0C
:1019600024D9220070321378002B10D121000133CA
:101970001370657C14315D406846FFF769FD2800EF
:101980006946FFF775FD6846FEF70BFEE2E7234B5D
:101990009D420BD9220071321378002B06D1210011
:1019A00001331370657C44315D40E5E7E36D002B46
:1019B000D0D0FA26B600B542CCD9FA23DB009D423E
:1019C0000BD8C8212800FEF72FFC0029C2D1200027
:1019D00001215430FFF75DFDBCE7114B64219D42AE
:1019E000F0D9FA2332211B019D42EBD9192128009D
:1019F000FEF71AFC0B4B9D42E7D90029AAD1200023
:101A0000E16E5430FFF745FD3100A06EFEF70CFC8F
:101A100000299FD1E36E0133E3669BE7E7030000F3
:101A2000B80B00008813000008B4024B9C46043831
:101A300008BC6047D5180008F0B5040085B0406EBA
:101A4000FEF7F4FD002802D1A36E002B34D0606EA7
:101A5000FEF7ECFD051E31D12600637C70360700D1
:101A6000002B00D13778210068462431FFF7F0FCC5
:101A7000380027006946FFF7FBFC6846FEF791FD3A
:101A8000637C7137002B05D13578002D02D00125FC
:101A90003B785D40210068463431FFF7D9FC694648
:101AA0002800FFF7E5FC6846FEF77BFD00230122D6
:101AB000A366E26633703B7005B0F0BDA36E5D1C9B
:101AC000A566092D24D9220070321378002B10D17D
:101AD000210001331370657C14315D406846FFF7C7
:101AE000B7FC28006946FFF7C3FC6846FEF759FDBE
:101AF000E2E7234B9D420BD9220071321378002B71
:101B000006D1210001331370657C44315D40E5E767
:101B1000E36D002BD0D0FA26B600B542CCD9FA231B
:101B2000DB009D420BD8C8212800FEF77DFB002971
:101B3000C2D1200001215430FFF7ABFCBCE7114BB0
:101B400064219D42F0D9FA2332211B019D42EBD939
:101B500019212800FEF768FB0B4B9D42E7D90029AD
:101B6000AAD12000E16E5430FFF793FC3100A06E43
:101B7000FEF75AFB00299FD1E36E0133E3669BE732
:101B8000E7030000B80B00008813000008B4024B04
:101B90009C46043808BC6047391A0008F0B50400B8
:101BA00085B0406EFEF742FD002802D1A36E002BE7
:101BB00034D0606EFEF73AFD051E31D12600637CFD
:101BC00070360700002B00D1377821006846243199
:101BD000FFF73EFC380027006946FFF749FC6846DE
:101BE000FEF7DFFC637C7137002B05D13578002DC3
:101BF00002D001253B785D40210068463431FFF773
:101C000027FC69462800FFF733FC6846FEF7C9FC4D
:101C100000230122A366E26633703B7005B0F0BD7D
:101C2000A36E5D1CA566092D24D92200703213789D
:101C3000002B10D1210001331370657C14315D40FD
:101C40006846FFF705FC28006946FFF711FC684667
:101C5000FEF7A7FCE2E7234B9D420BD9220071322D
:101C60001378002B06D1210001331370657C4431B9
:101C70005D40E5E7E36D002BD0D0FA26B600B54213
:101C8000CCD9FA23DB009D420BD8C8212800FEF7EF
:101C9000CBFA0029C2D1200001215430FFF7F9FB13
:101CA000BCE7114B64219D42F0D9FA2332211B017C
:101CB0009D42EBD919212800FEF7B6FA0B4B9D4245
:101CC000E7D90029AAD12000E16E5430FFF7E1FBEB
:101CD0003100A06EFEF7A8FA00299FD1E36E013310
:101CE000E3669BE7E7030000B80B000088130000E1
:101CF00008B4024B9C46043808BC60479D1B000892
:101D0000F0B5040085B0406EFEF790FC002802D1CB
:101D1000A36E002B34D0606EFEF788FC051E31D117
:101D20002600637C70360700002B00D13778210035
:101D300068462431FFF78CFB380027006946FFF71F
:101D400097FB6846FEF72DFC637C7137002B05D1AD
:101D50003578002D02D001253B785D402100684692
:101D60003431FFF775FB69462800FFF781FB6846B1
:101D7000FEF717FC00230122A366E26633703B7076
:101D800005B0F0BDA36E5D1CA566092D24D9220007
:101D900070321378002B10D1210001331370657C51
:101DA00014315D406846FFF753FB28006946FFF792
:101DB0005FFB6846FEF7F5FBE2E7234B9D420BD93C
:101DC000220071321378002B06D1210001331370E9
:101DD000657C44315D40E5E7E36D002BD0D0FA2609
:101DE000B600B542CCD9FA23DB009D420BD8C821FE
:101DF0002800FEF719FA0029C2D120000121543031
:101E0000FFF747FBBCE7114B64219D42F0D9FA2351
:101E100032211B019D42EBD919212800FEF704FA5B
:101E20000B4B9D42E7D90029AAD12000E16E543026
:101E3000FFF72FFB3100A06EFEF7F6F900299FD1C6
:101E4000E36E0133E3669BE7E7030000B80B000095
:101E50008813000008B4024B9C46043808BC604755
:101E6000011D000873B56B4604001A0060CC60C207
:101E70000A0030CA30C005CB05C173BD1FB50400D0
:101E80006846FFF7E5FA21006846FFF7EBFF029B83
:101E9000A268A360039B0292E2686846E360039233
:101EA000FEF77FFB200004B010BD10B54430FFF7F3
:101EB000E5FF10BD10B53430FFF7E0FF10BD10B5E1
:101EC0002430FFF7DBFF10BD10B51430FFF7D6FF4D
:101ED00010BD10B54430FFF7D1FF10BD10B5343040
:101EE000FFF7CCFF10BD10B52430FFF7C7FF10BDC2
:101EF00010B51430FFF7C2FF10BD10B54430FFF726
:101F0000BDFF10BD10B53430FFF7B8FF10BD10B5E0
:101F10002430FFF7B3FF10BD10B51430FFF7AEFF4C
:101F200010BD10B54430FFF7A9FF10BD10B5343017
:101F3000FFF7A4FF10BD10B52430FFF79FFF10BDC1
:101F400010B51430FFF79AFF10BD10B54430FFF7FD
:101F500095FF10BD10B53430FFF790FF10BD10B5E0
:101F60002430FFF78BFF10BD10B51430FFF786FF4C
:101F700010BD10B54430FFF781FF10BD10B53430EF
:101F8000FFF77CFF10BD10B52430FFF777FF10BDC1
:101F900010B51430FFF772FF10BD10B54430FFF7D5
:101FA0006DFF10BD10B53430FFF768FF10BD10B5E0
:101FB0002430FFF763FF10BD10B51430FFF75EFF4C
:101FC00010BD002330B587B004938B6804000D006A
:101FD000002B07D0022202A89847EB680593AB6854
:101FE00001930493210002A8FFF73CFF049BA26821
:101FF000A360059B0492E26802A8E3600592FEF7E5
:10200000D0FA200007B030BD10B55430FFF7D9FF2B
:1020100010BD10B55430FFF7D4FF10BD10B55430CB
:10202000FFF7CFFF10BD10B55430FFF7CAFF10BD4A
:1020300010B55430FFF7C5FF10BD10B55430FFF791
:10204000C0FF10BD10B55430FFF7BBFF10BD00003E
:1020500070B5012200243C4B02251C605C609C6032
:102060005A61DC601C61394B196891431960384929
:10207000596004219C60186801431960196835484B
:102080002943196019680A431A608422210052000A
:1020900000F00BF91922304B1D711C602F4B1C6096
:1020A0001A712F4B52191C601A712E4B0E3A1C607C
:1020B0001A712D4B03321C601A712C4B073A1C60AD
:1020C0001A712B4B01321C601A712A4B1C601A7159
:1020D000294B01321C601A71284B1C601A71284B65
:1020E000063A1C601A71274B1A711C60264B01328C
:1020F0001A711C60254B1A711C600723244A146056
:102100001371244A14601371234A14601371234A13
:1021100014601371224A14601371224A14601371FF
:10212000214A14601371214A14601371204A14600B
:102130001371204A146013711F4A146013711F4AEF
:102140001460137170BDC0469003002010E000E0E1
:102150007FBB0000B801002068030020700300204E
:10216000880300207803002080030020C0020020A4
:10217000C8020020D0020020D8020020E002002087
:10218000E8020020F0020020280300203003002095
:1021900038030020400300204803002050030020A3
:1021A0005803002060030020F802002000030020F4
:1021B0000803002010030020180300202003002043
:1021C0000D4885460D480E490E4A002302E0D458BA
:1021D000C4500433C4188C42F9D30B4A0B4C00236F
:1021E00001E013600432A242FBD3FEF74BFB00F088
:1021F0002FF8FEF7F3FDFEE700100020000000209E
:10220000680000207826000868000020AC03002049
:10221000FEE70B0010B50100180000F00BF810BD30
:1022200010B500F000F810B5062000F071F801209C
:1022300000F09EF810B5040004481300002804D0F4
:102240000A000220210000E000BF10BD00000000D5
:1022500070B500260C4D0D4C641BA410A64209D18C
:10226000002600F087F80A4D0A4C641BA410A64211
:1022700005D170BDB300EB5898470136EEE7B300C7
:10228000EB5898470136F2E76C2600086C260008E8
:102290006C26000874260008002310B59A4200D16D
:1022A00010BDCC5CC4540133F8E70300121893420C
:1022B00000D1704719700133F9E770B504000D00C3
:1022C0001F2904D9162303600120404270BD436CCE
:1022D000002B04D08A009B181A68002A08D120001D
:1022E00000F032F82A000100200000F01BF8EDE7B2
:1022F0000020012AEAD0511C03D1162301302360AB
:10230000E4E7002428001C6090472000DEE700007E
:1023100010B5034B01001868FFF7CFFF10BDC04692
:1023200004000020002370B5064C050008001100D1
:10233000236000F015F8431C03D12368002B00D064
:102340002B6070BDA803002010B500F001F810BD8F
:1023500058220120014B40421A607047A803002018
:1023600058220120014B40421A607047A803002008
:10237000FEE7C046F8B5C046F8BC08BC9E467047AC
:0C238000F8B5C046F8BC08BC9E4670478B
:10238C000000000000000000C91E0008BF1E00086D
:10239C00B51E0008AB1E000809200008011D00082E
:1023AC00FCFFFFFF00000000551E000800000000AD
:1023BC0000000000F11E0008E71E0008DD1E0008EA
:1023CC00D31E0008132000089D1B0008FCFFFFFF14
:1023DC0000000000F11C00080000000000000000DC
:1023EC00191F00080F1F0008051F0008FB1E00081E
:1023FC001D200008391A0008FCFFFFFF0000000038
:10240C008D1B00080000000000000000411F0008A8
:10241C00371F00082D1F0008231F00082720000865
:10242C00D5180008FCFFFFFF00000000291A000867
:10243C000000000000000000691F00085F1F00087A
:10244C00551F00084B1F00083120000871170008A9
:10245C00FCFFFFFF00000000C51800080000000092
:10246C0000000000911F0008871F00087D1F000856
:10247C00731F00083B2000080D160008FCFFFFFF2F
:10248C0000000000611700080000000000000000C0
:10249C00B91F0008AF1F0008A51F00089B1F0008EC
:1024AC0045200008A9140008FCFFFFFF00000000F5
:1024BC00FD1500081A190000FE0D0000E40D0000C7
:1024CC00C90D0000AD0D00008F0D0000770D000050
:1024DC00590D0000390D0000190D0000F70C00001B
:1024EC00DB0C0000B80C0000950C0000700C000018
:1024FC004B0C00002B0C0000040C0000DC0B00004B
:10250C00B40B00008A0B0000690B00003F0B0000AD
:10251C00150B0000E90A0000BD0A0000980A000033
:10252C006C0A00003F0A0000110A0000E3090000D9
:10253C00BE0900009009000061090000320900008A
:10254C0002090000DB080000AD0800007E08000056
:10255C004F08000020080000FA070000CD0700001B
:10256C00A0070000730700004607000022070000C8
:10257C00F6060000CB060000A00600007506000061
:10258C00530600002A06000002060000DA050000CF
:10259C00B2050000920500006C0500004605000025
:1025AC0022050000FD040000E0040000BE04000051
:1025BC009C0400007B0400005A040000400400004E
:1025CC002104000003040000E5030000C803000020
:1025DC00B1030000960300007B03000061030000C0
:1025EC0047030000330300001B030000040300003A
:1025FC00ED020000D6020000C5020000B00200008F
:10260C009B020000870200007402000065020000BB
:10261C005302000042020000300200001F020000C2
:10262C001302000003020000F4010000E5010000A9
:10263C00D5010000CB010000BD010000B00100007D
:10264C00A301000096010000000000000000000043
:10265C00EF0800080000000000000000550300080F
:08266C00E900000851200008FC
:04267400C100000899
:10267800000000000800002000000000000000002A
:102688000000000000000000000000000000000042
:102698000000000000000000000000000000000032
:1026A8000000000000000000000000000000000022
:1026B8000000000000000000000000000000000012
:1026C8000000000000000000000000000000000002
:0826D8000000000000000000FA
:04000005080021C10D
:00000001FF
