:020000040800F2
:100000000010002039470008894700088947000888
:1000100000000000000000000000000000000000E0
:1000200000000000000000000000000089470008F8
:10003000000000000000000089470008D10F000800
:100040008947000800000000894700088947000828
:1000500089470008CD120008011300083513000875
:100060000000000015120008311200085D1200089F
:100070008947000861120008811200080000000092
:10008000891200080000000000000000A91200080A
:1000900000000000AB120008AD12000889470008FC
:1000A000000000008947000800000000B1120008AD
:1000B0000000000000000000000000000000000040
:1000C0000448054B10B5834203D0044B002B00D0ED
:1000D000984710BD50010020500100200000000092
:1000E00006480749091A8B10C90FC91810B54910DD
:1000F00003D0044B002B00D0984710BD50010020C6
:10010000500100200000000010B5074C2378002BA0
:1001100009D1FFF7D5FF054B002B02D0044800E0C2
:1001200000BF0123237010BD50010020000000001B
:10013000A0470008054B10B5002B03D00449054823
:1001400000E000BFFFF7CCFF10BDC046000000007C
:1001500054010020A047000810B5062000F04EFA18
:10016000012000F0ABFCC04670B5064C0500002035
:10017000002C05D0130002300A00290000F084FA98
:1001800070BDC0468906000870B50C4D0C4E761B3C
:10019000B61005D0002408CD01349847A642FAD104
:1001A00004F0FEFA074D084E761BB61005D0002469
:1001B00008CD01349847A642FAD170BD244B0008FF
:1001C000244B0008244B00082C4B000810B5034BAF
:1001D0000100186800F00CF910BDC04604000020B2
:1001E00010B5034B0100186800F0ACF810BDC04614
:1001F00004000020F0B5C64600B50F2A43D90B0015
:10020000032603431E400C000300002E40D11500BE
:10021000103D2D09AC462D01A846804400E03B006E
:10022000676825685F60E7681D60DF601F00A5687C
:1002300010379D6010344345F1D165460F230C24DF
:1002400001352D01491913404519144223D08C5909
:10025000AC5104369C1B032CF9D80324043B9B08A7
:1002600001339B002240ED18C918561E002A07D002
:10027000002300E02300CA5C5C1CEA549E42F9D1D2
:1002800004BC9046F0BD0500561E002AF0D1F7E7E9
:10029000561E0500ECE71A00F6E7C046F0B505006B
:1002A00083074AD0541E002A44D0CEB20300032252
:1002B00002E00135013C3DD301332E701342F8D1E9
:1002C000032C2FD9FF220A40150215432A04154397
:1002D0000F2C35D92700103F3F093E01B4461E00C0
:1002E0001A0010366644156055609560D56010326E
:1002F000B242F8D10F260C2201373F012640DB190C
:100300003700224217D03E1FB608B400A4461A0098
:100310001C1D644420C2A242FCD103240136B60055
:100320009B193C40002C05D0C9B21C19197001332F
:100330009C42FBD1F0BD3400F4E714000300BFE79A
:100340002700E0E770B50500002915D00C1F2368D1
:10035000002B27DB280000F005FA244B1A68002A3E
:1003600005D0A2420CD921686018824224D0626074
:1003700028001C6000F0F8F970BDA34203D81A00F1
:100380005368002BF9D111685018A0421BD027D810
:1003900021686018834207D063605460280000F031
:1003A000E3F9E9E7E418D5E718685B688446614437
:1003B000216063605460F1E71068526884466144CC
:1003C00021606260D4E720680918501811608342E8
:1003D000E4D118685B688446614411605360DDE7CE
:1003E0000C2328002B6000F0BFF9C5E76C0100204A
:1003F000F8B50323CD1C9D43083506000C2D2AD2E9
:100400000C25A94229D8300000F0ACF92A4F3A68EF
:10041000002A0AD013685B1B04D441E023685B1BED
:100420001FD522005468002CF8D17B68002B3DD0EA
:100430002900300000F042F8431C2AD00323C41CDA
:100440009C43A04205D0211A300000F037F8431C2D
:100450001FD0256010E0002DD3DA0C23002033607C
:10046000F8BD0B2B05D86368A2421DD0536003E092
:1004700014002360E4182560300000F075F92000B6
:1004800007220B30231D9043C21AE9D01B1AA35038
:10049000E6E70C233000336000F066F90020DFE768
:1004A0000B2BE5D8140053683B60E5E700213000D2
:1004B00000F004F87860BBE76C010020002370B501
:1004C000064C05000800236000F0EAFA431C00D047
:1004D00070BD2368002BFBD02B60F9E720070020BC
:1004E00010B580210400FFF783FF6064002807D067
:1004F00002000023803208C09042FCD1002010BDD1
:1005000001204042FBE7C046426C10B50023002AA0
:1005100001D0180010BDFFF7E3FF0300F9E7C04664
:1005200070B505000C0016001F2907D8436C002B7E
:1005300009D0A4001B1918681E6070BD1623036043
:1005400001204042F9E7FFF7CBFF002801D16B6C97
:10055000EFE701204042F0E770B505000C001F29CD
:1005600020D8436C002B0ED08A009B181A68002AF2
:1005700009D0012A14D0511C0ED00021200019608E
:100580009047002070BD280000F07AF8220001009A
:10059000280000F061F8F5E7162303600120F1E779
:1005A0000020EFE71623036001204042EAE7C0463F
:1005B00070B505000C001F291DD8436C002B10D00E
:1005C000A2009B181A68002A09D0511C11D0012AD8
:1005D0000DD00021200019609047002070BD01203F
:1005E000FCE7FFF77DFF002805D16B6CE8E70320EF
:1005F000F4E70220F2E701204042EFE710B5034B99
:1006000001001868FFF7A8FF10BDC04604000020D5
:1006100010B5044B0A001B6801001800FFF780FFAB
:1006200010BDC04604000020054B10B51B6800201B
:100630005A6C002A00D010BD1800FFF751FFFAE7EE
:100640000400002010B5034B01001868FFF7B0FF4D
:1006500010BDC04604000020002370B5074C050003
:1006600008001100236000F013FA431C00D070BD95
:100670002368002BFBD02B60F9E7C0462007002041
:1006800010B500F0FDF910BDF0B546464F46D64610
:10069000C0B51F002F4B82B01C6805000E009046AD
:1006A000002C2DD063681F2B50DC002D1CD088221D
:1006B000A0589146002834D07832825894469A0047
:1006C00091468144424649460A600121624699406A
:1006D0000A43944680228A46614652008150494628
:1006E000803A8F50022D16D000205A1C02339B00F6
:1006F00062601E5102B01CBC90469946A246F0BDF5
:10070000154C1C60154B002BCCD01B680193882323
:10071000019AE250C6E75546843281580D43855010
:10072000E2E70F4B002B11D084204000FFF74EFD75
:1007300000280BD0802200235200835004328350C3
:100740004B460022E05094466368B8E701204042DF
:10075000D0E7C046080300207C020020C447000800
:10076000CD0100087047C0467047C04602B47146CC
:1007700049084900095C49008E4402BC7047C046E4
:1007800003B47146490840004900095A49008E44A3
:1007900003BC7047002243088B4274D303098B4289
:1007A0005FD3030A8B4244D3030B8B4228D3030C41
:1007B0008B420DD3FF22090212BA030C8B4202D3E3
:1007C0001212090265D0030B8B4219D300E0090A0B
:1007D000C30B8B4201D3CB03C01A5241830B8B4214
:1007E00001D38B03C01A5241430B8B4201D34B03FD
:1007F000C01A5241030B8B4201D30B03C01A524162
:10080000C30A8B4201D3CB02C01A5241830A8B42E6
:1008100001D38B02C01A5241430A8B4201D34B02CF
:10082000C01A5241030A8B4201D30B02C01A524133
:10083000CDD2C3098B4201D3CB01C01A52418309E7
:100840008B4201D38B01C01A524143098B4201D321
:100850004B01C01A524103098B4201D30B01C01A4C
:100860005241C3088B4201D3CB00C01A52418308C6
:100870008B4201D38B00C01A524143088B4201D3F3
:100880004B00C01A5241411A00D201465241104653
:100890007047FFE701B5002000F0F0F802BDC04648
:1008A0000029F7D076E7704703460B437FD4002238
:1008B00043088B4274D303098B425FD3030A8B42F4
:1008C00044D3030B8B4228D3030C8B420DD3FF225E
:1008D000090212BA030C8B4202D31212090265D02C
:1008E000030B8B4219D300E0090AC30B8B4201D3DF
:1008F000CB03C01A5241830B8B4201D38B03C01A26
:100900005241430B8B4201D34B03C01A5241030B9C
:100910008B4201D30B03C01A5241C30A8B4201D34D
:10092000CB02C01A5241830A8B4201D38B02C01AF8
:100930005241430A8B4201D34B02C01A5241030A6F
:100940008B4201D30B02C01A5241CDD2C3098B4254
:1009500001D3CB01C01A524183098B4201D38B01D1
:10096000C01A524143098B4201D34B01C01A524174
:1009700003098B4201D30B01C01A5241C3088B42B9
:1009800001D3CB00C01A524183088B4201D38B00A4
:10099000C01A524143088B4201D34B00C01A524146
:1009A000411A00D201465241104670475DE0CA0F1D
:1009B00000D04942031000D34042534000229C46DD
:1009C00003098B422DD3030A8B4212D3FC228901E7
:1009D00012BA030A8B420CD3890192118B4208D3BD
:1009E000890192118B4204D389013AD0921100E01F
:1009F0008909C3098B4201D3CB01C01A5241830933
:100A00008B4201D38B01C01A524143098B4201D35F
:100A10004B01C01A524103098B4201D30B01C01A8A
:100A20005241C3088B4201D3CB00C01A5241830804
:100A30008B4201D38B00C01A5241D9D243088B425A
:100A400001D34B00C01A5241411A00D201466346FD
:100A500052415B10104601D34042002B00D5494261
:100A6000704763465B1000D3404201B5002000F0A0
:100A700005F802BD0029F8D016E770477047C04658
:100A800058220120014B40421A6070472007002085
:100A900058220120014B40421A6070472007002075
:100AA000044A1368002B03D0181810601800704710
:100AB000014BF9E70C03002028070020FEE7C046A1
:100AC0001F2318401E3B8340014A13607047C046F5
:100AD00000E100E04369013343617047022A06D018
:100AE000032A02D0012A00D10160002070470B6860
:100AF0000360FAE7022A06D0032A02D0012A00D1B5
:100B00000160002070470B680360FAE7022A06D0F4
:100B1000032A02D0012A00D10160002070470B682F
:100B20000360FAE7022A06D0032A02D0012A00D184
:100B30000160002070470B680360FAE7022A06D0C4
:100B4000032A02D0012A00D10160002070470B68FF
:100B50000360FAE7022A06D0032A02D0012A00D154
:100B60000160002070470B680360FAE7022A06D094
:100B7000032A02D0012A00D10160002070470B68CF
:100B80000360FAE7022A06D0032A02D0012A00D124
:100B90000160002070470B680360FAE7022A06D064
:100BA000032A02D0012A00D10160002070470B689F
:100BB0000360FAE7022A06D0032A02D0012A00D1F4
:100BC0000160002070470B680360FAE7022A06D034
:100BD000032A02D0012A00D10160002070470B686F
:100BE0000360FAE7022A06D0032A02D0012A00D1C4
:100BF0000160002070470B680360FAE7022A06D004
:100C0000032A02D0012A00D10160002070470B683E
:100C10000360FAE7022A06D0032A02D0012A00D193
:100C20000160002070470B680360FAE7022A06D0D3
:100C3000032A02D0012A00D10160002070470B680E
:100C40000360FAE7022A06D0032A02D0012A00D163
:100C50000160002070470B680360FAE7022A06D0A3
:100C6000032A02D0012A00D10160002070470B68DE
:100C70000360FAE70B1A9B10002B14DD0278002AA0
:100C800003D04278002A01D1013070478278002ACF
:100C900001D10230F9E7C278002A01D10330F4E72C
:100CA0000430013BE8E70B1A022B09D0032B03D0D9
:100CB000012B09D00800E8E70378002BE5D00130CC
:100CC0000378002BE1D001300378002BF2D1DCE770
:100CD0000B1A9B10002B14DD0278002A03D14278F6
:100CE000002A01D0013070478278002A01D00230FA
:100CF000F9E7C278002A01D00330F4E70430013B61
:100D0000E8E70B1A022B09D0032B03D0012B09D0E3
:100D10000800E8E70378002BE5D101300378002BC9
:100D2000E1D101300378002BF2D0DCE710B50400EC
:100D3000002C05D0236820001B6898476468F7E7FB
:100D400010BD000003691B0603D5024B4360024B34
:100D50004360704723016745AB89EFCD01220369EA
:100D600093430361022302691343036180239B02BF
:100D7000C918402389024161026913430361704726
:100D8000836810B50400002B02D0032201009847AD
:100D9000200010BD10B50400034B08330360303051
:100DA000FFF7EEFF200010BD0C4B000830B505002A
:100DB0000400C03528680E4A036885B01B6803929A
:100DC0000C4A69460292009498476846FFF7D8FF9C
:100DD0002868094A03686946DB680392074A009459
:100DE000029298476846FFF7CBFF05B030BDC0467A
:100DF000A9150008E50B0008CD160008FD0B00083A
:100E00007FB5040006002500B83630681A4A03682A
:100E100069461B680392194A009402929847BC35B0
:100E20006846FFF7ADFF2868154A036869461B68E6
:100E30000392144A0094029298476846FFF7A0FF75
:100E40003068114A036869461B6903920F4A00948F
:100E5000029298476846FFF793FF28680C4A036898
:100E600069461B6903920B4A0094029298476846B0
:100E7000FFF786FF7FBDC0468F140008150C0008E1
:100E8000B31400082D0C0008D7140008450C000806
:100E9000FB1400085D0C000830B50025C0300400CC
:100EA000006885B0036869461B68029598476846E4
:100EB000FFF766FF206869460368DB68029598477C
:100EC0006846FFF75DFF05B030BD7FB50600002521
:100ED0000400B836306869460368BC341B68029564
:100EE00098476846FFF74CFF2068694603681B680F
:100EF000029598476846FFF743FF306869460368E4
:100F00001B69029598476846FFF73AFF20686946D3
:100F100003681B69029598476846FFF731FF7FBD5C
:100F2000F0B50400070000252600B037386885B00A
:100F3000036869461B6802959847B4366846FFF710
:100F40001FFF3068694603681B680295984768462A
:100F5000FFF716FF3868694603681B6902959847D2
:100F60006846FFF70DFF3068694603681B69029504
:100F700098476846FFF704FF2300C833186869469E
:100F800003681B68029598476846FFF7F9FE200042
:100F9000FFF79BFF05B0F0BD10B50468002C05D02D
:100FA000236820001B689847A468F7E710BD10B5B8
:100FB00004000830FFF7F0FF20696169431C2361DA
:100FC000FFF76EFC002902D12000FFF7E5FF10BDFE
:100FD00010B50248FFF7EBFF10BDC0460807002020
:100FE0004169026903000020914201D35861013038
:100FF00070470000037B002B0DD000234268037371
:101000008368002A0ED0002B08D0936083685A6052
:1010100000234360836070470B60F8E704499360E6
:101020004A60F5E70249002BF6D10B604B60EFE711
:101030000807002070B504008069E569461C290096
:10104000A661FFF72DFC002905D121690A688B896B
:10105000106A03431362AE420AD100232169A361DF
:101060000A688989136A20008B431362FFF7C2FF65
:1010700070BD002310B54361FFF7BCFF10BD000039
:10108000037B002B0CD101330373064B5A6842607B
:10109000002A00D090601A685860002A00D11860B9
:1010A0007047C046080700200123416802688B4052
:1010B00093617047012306C8103293408B617047DB
:1010C0000300026810695A68012393401840431EC8
:1010D0009841C0B2704710B5FFF7F2FF01235840A6
:1010E000C0B210BD10B50C1E03D0FFF7DDFF20000D
:1010F00010BDFFF7DFFFFAE770B505004378E8356C
:1011000004002868002B0ED0012B22D02378052B59
:1011100002D12868FFF7CEFF2868FFF7D1FF01232F
:101120005840C0B270BD2378023B022B17D8230071
:10113000AC331B681B78002B11D02300FE33D98CF5
:101140001B8D994289414942FFF7CCFF012363700F
:10115000DCE72300FE33DA8C1B8D9A4202D3FFF7C3
:10116000A9FFD3E7013B9A42D0DAFFF79DFFCDE715
:10117000F8B5837BC27B0133DBB2040083739A42F0
:1011800033D100250600072785731036637B3000B6
:10119000E31894331A78154B7A439B18595D01353F
:1011A000FFF7A0FF0836072DF0D10121637B260051
:1011B000E3189A331B78A06C5940FFF793FF002582
:1011C00006274C36627B0A4B7A439B183000595DE8
:1011D0000135FFF787FF0836062DF3D1637B013316
:1011E000DBB2062B00D100236373F8BD8C00002016
:1011F00068000020012901D142637047022901D112
:101200008263FAE7032901D1C263F6E70429F4D126
:101210000264F2E7044B10B51868FFF787FD01225E
:10122000024B5A6010BDC046380600200000024044
:10123000074B10B51868FFF779FD1023054C636064
:10124000054B1868FFF772FD80235B00636010BDDB
:10125000400600200000024048060020FEE7000093
:10126000054B10B51868FFF761FD0121034A138A89
:101270008B43138210BDC046F0060020002C0140B5
:1012800010B5FFF7EDFF10BD054B10B51868FFF75F
:101290004DFD0121034A138A8B43138210BDC046C2
:1012A000F806002000040040FEE7FEE7FEE700002D
:1012B000044B10B51868FFF739FD0122024B52426A
:1012C0001A6210BD000700200038014010B5094C1B
:1012D0006369DB0703D5084B1868FFF727FD6369CF
:1012E0009B0703D5054B1868FFF720FD03236361B7
:1012F00010BDC046000401406006002068060020C2
:1013000010B5094C63695B0703D5084B1868FFF7F4
:101310000DFD63691B0703D5054B1868FFF706FD34
:101320000C23636110BDC04600040140A0060020EC
:10133000A806002010B5304C6369DB0603D52F4B9F
:101340001868FFF7F3FC63699B0603D52C4B1868FC
:10135000FFF7ECFC63695B0603D52A4B1868FFF7BF
:10136000E5FC63691B0603D5274B1868FFF7DEFC15
:101370006369DB0503D5254B1868FFF7D7FC636964
:101380009B0503D5224B1868FFF7D0FC63695B050A
:1013900003D5204B1868FFF7C9FC63691B0503D50B
:1013A0001D4B1868FFF7C2FC6369DB0403D51B4BB8
:1013B0001868FFF7BBFC63699B0403D5184B1868DA
:1013C000FFF7B4FC63695B0403D5164B1868FFF79D
:1013D000ADFC63691B0403D5134B1868FFF7A6FC2B
:1013E0001022052301200100994001330A43102BEC
:1013F000F9D1626110BDC04600040140B006002072
:10140000B8060020C0060020C8060020D006002034
:10141000D8060020700600207806002080060020F4
:101420008806002090060020980600200122436ACA
:1014300019680A431A601A68D207FCD5036A1A6849
:10144000D20703D5012219680A431A60012299685C
:101450000A439A601A68D207FCD5042299680A43A5
:101460009A607047FA2110B5446800882389890082
:101470005843FFF719FAA17A02002068FFF7BAFE75
:1014800010BD322310B5C361FFF7FAFD10BD02682D
:1014900010B51100FE310B8D906801339BB20B85A6
:1014A0004088834200D30885F0321068FFF7E9FFD7
:1014B00010BD026810B51100FE310B8D9068013B24
:1014C0009BB20B850088834200D80885F0321068F3
:1014D000FFF7D7FF10BD026810B51100FE310B8D6C
:1014E000906801339BB20B854088834200D3088506
:1014F000F0321068FFF7C5FF10BD026810B511008B
:10150000FE310B8D9068013B9BB20B8500888342B6
:1015100000D80885F0321068FFF7B3FF10BD0268ED
:1015200010B51100FE314B8D01339BB2622B05D8F3
:10153000F03210684B85FFF7A4FF10BD6323F7E777
:10154000026810B51100FE314B8D013B9BB2012B9F
:1015500005D9F03210684B85FFF793FF10BD0123CA
:10156000F7E7026810B51100FE314B8D906801332A
:101570009BB24B858088834200D34885F032106847
:10158000FFF77FFF10BD026810B51100FE314B8DD3
:10159000013B9BB2012B05D9F03210684B85FFF758
:1015A00070FF10BD0123F7E703689720012110B5F4
:1015B00040001A5C4A401A543022FF329954F033EA
:1015C0001868FFF75EFF10BD036870B5AC331C6888
:1015D000050023780133DBB2022B1BD8237023785C
:1015E000002B19D16068FFF75FFDA068FFF762FD6F
:1015F000E068FFF75FFD28680300AC331B681B78C9
:10160000002B1ED1FFF761FC2B68F0331868FFF741
:1016100038FF70BD0023E1E7012B06D16068FFF7BA
:1016200049FDA068FFF740FDE2E7022BE3D16068C7
:10163000FFF740FDA068FFF73DFDE068FFF734FDD0
:10164000D9E7FFF7DDFBDFE7FA2310B55B00C361E5
:10165000FFF716FD10BD10B5026891684B88013385
:101660009BB2622B05D8F03210684B80FFF7ECFF7D
:1016700010BD6323F7E710B5026891684B880888AE
:10168000013B9BB24B80834200D84880F032106807
:10169000FFF7DAFF10BD10B5026891688B8801333F
:1016A0009BB2622B05D8F03210688B80FFF7CCFF1D
:1016B00010BD6323F7E710B503689968F0338A8893
:1016C0001868013A8A80FFF7BFFF10BD70B50400AB
:1016D0000068002503000D30FE331D86FF30FFF744
:1016E000C8FC2368F0331868FFF7AEFF3423226884
:1016F000FF33D55470BD00007FB532260368FF3636
:101700009A5D0400002A2CD1F0331868FFF79CFF83
:10171000012320688355FFF703FC2068FFF7BCFB1B
:10172000236869461A00B83210680268D2680093CC
:10173000194B0393194B029390476846FFF720FB20
:10174000236869461A00BC3210680268D2680093A8
:10175000134B0393134B029390476846FFF710FB1C
:101760007FBD00259D55B833186869460368DB685E
:10177000029598476846FFF703FB23686946BC3328
:1017800018680368DB68029598476846FFF7F8FA1F
:1017900023681D70E4E7C04657160008DD0A0008FC
:1017A00077160008F50A00087FB5992603687600C9
:1017B0009A5D0400002A2CD1F0331868FFF744FF2B
:1017C000012320688355FFF7ABFB2068FFF764FB1C
:1017D000236869461A00B03210680268D268009324
:1017E000194B0393194B029390476846FFF7C8FAC9
:1017F000236869461A00B43210680268D268009300
:10180000134B0393134B029390476846FFF7B8FAC4
:101810007FBD00259D55B033186869460368DB68B5
:10182000029598476846FFF7ABFA23686946B433D8
:1018300018680368DB68029598476846FFF7A0FAC6
:1018400023681D70E4E7C04697160008250B0008C2
:10185000B71600083D0B0008F021114B5A688A4367
:101860005A605A680F490A4003215A605A688A43ED
:10187000110002220A435A605A680B490A405A6012
:101880005A680A491140A02292030A435A608022F2
:10189000196852040A431A601A689201FCD570470D
:1018A00000100240FFF8FFFFFFFFFEFFFFFFC3FF36
:1018B0000123F7B5334E344A3168344C0190194254
:1018C00031D1334D33492868184205D19027FF059F
:1018D0000F6008272B604F6080255369AD022B43B2
:1018E00053610B682C4F1868384005430F201D606A
:1018F0005D6A8543AC460225604605435D62DD684E
:101900003D40DD60254B6160236001990123E18149
:1019100000215B4223810233A372A381218264618F
:101920002183E4613360802391691B010B437021A3
:10193000936123689A698A43110060220A439A617D
:10194000082299690A439A61802219680A431A6039
:101950008022596C12020A435A64012219680A4310
:101960001A60B723228A9B009A4209D060692382B9
:101970000B4B0C4A038103681830DA62FFF772FDE3
:101980002000FEBD000500200010024004050020DC
:101990002405002028050020FFFFFCFF002C01404B
:1019A0001280FFFF12800000836810B5002B01D168
:1019B00002F0F2FEC368984710BD70B5846800223B
:1019C0002300002B02D09A605B68FAE7220043698B
:1019D000590003695918994209D096681D887519EC
:1019E00095605268002A00D122000233F3E7836B2E
:1019F000002B02D03030FFF7D7FF70BD3C4970B5E7
:101A00000D6801222B003B4C1340154221D1A061EF
:101A10000F20394AA36008322260384AE36022620C
:101A2000374A63606262374A23616361E361A3639B
:101A30001368A262E062002B58D01A005B68002B8A
:101A4000FBD15460012320000B602F4A2F4902F084
:101A50009CFE802318212E489B0082690125134398
:101A60008361236A8026DA6836068A43DA60802238
:101A7000D96892010A430221DA60DA682A43DA60FF
:101A8000DA680A43DA601A698A40CA4032431A6146
:101A900007225E6932435A6142694033154345610A
:101AA0001020626A936013688343136013681948B7
:101AB00018408023DB000343136013681648184066
:101AC00080235B000343136080231068034313608B
:101AD0001368042019432023116011680B4313601D
:101AE000A36A1856FEF7ECFF200070BD1460A9E74A
:101AF00084040020880400200C4B000800240140CE
:101B0000080002403806002000000020950D000863
:101B100000100240FFF3FFFFFFFCFFFF0121F0B5C3
:101B20004A4D03002A684A480A421FD1494C4A4A92
:101B3000266837000F400E4204D19026F605166045
:101B4000576021608021454C890266693143032634
:101B5000616111680C6834430C60CC68B443CC609C
:101B60000021C2600122016041602A60DA6A0F2A06
:101B700004D1196A0E3A8C6A22438A62002299685B
:101B800002610A00002A5CD01469002C01DC526852
:101B9000F8E7914249D141600860DA689860002A0C
:101BA00000D1D8601D699A692D49002D0DD00E0015
:101BB000FC367468043D2F68043CE41B0F19BD42D9
:101BC0003AD00C000125FF3465715C691219254C6F
:101BD0005A61A24232D852000E008027FC36746847
:101BE0007F000D190434A41874600026BC4205D887
:101BF000FF314979B14201D12E0004C601215A6A50
:101C00001E6114688C4314605B69D6609BB253609C
:101C10001368194311601368DB07FCD5F0BDDA685F
:101C20000260002ABDD05060BBE7116842600160CD
:101C3000106002685060B5E77460C6E70122524246
:101C4000CAE70029EBD14160A7E7C046B8030020EE
:101C5000BC030020D0030020D40300200010024069
:101C600030050020FCFFFF3F01214B4BF0B51C6805
:101C70000C4206D19024494AE405146002241960FC
:101C800054608021464B30265C6989022143102430
:101C9000424A596111680D68B5432C4301250C6017
:101CA000CC68B443CC603F4C3F4926682E4205D1F6
:101CB0009026F6050E60032625604E6080245D693F
:101CC000C026A4022C4340255C610C682768B743FA
:101CD0003D432560E568B543E560344DBF3E2F6860
:101CE000334C374205D19027FF05276004272E602B
:101CF000676080255E69AD0235435D6125682D4FC3
:101D00002E68BC463E4080277F0037432F606746E1
:101D1000EE683E400127EE60274E284D32683A4279
:101D200005D19022D2052A60052237606A6080269C
:101D30005F69B6023E4380275E612D68204A2E68A7
:101D4000FF00164037432F60EE681640EE60012614
:101D50001C4D2A68324205D11B4F1C4A2E603A6046
:101D600006227A6080255E69ED0335438026164F92
:101D70005D613B68164A1D68760115402E431E6062
:101D8000DD681540DD600D4B07604360034B8460E8
:101D9000C1600361F0BDC0466004002064040020FF
:101DA0000010024054040020580400204804002081
:101DB0004C040020FFFCFFFF3C04002040040020F6
:101DC000FFF3FFFF3004002034040020001400481B
:101DD000FFCFFFFFF8B5040016250022E8B2A318D4
:101DE00019000126943108709A33197892197140BC
:101DF0001970062AF3D12600270046237C368C373B
:101E000030003B60FFF73CF9210090310A683B68E5
:101E10009A42FBD330000135FFF72BF91C2DDCD1A2
:101E2000F8BD0000EC4BF7B503600023C17301213E
:101E30004360836083818373E84B04001868E84A39
:101E4000084204D1E748196010600A2050608021E0
:101E50008025E54BC9025869E44F01435961116877
:101E60006D030E683E4035430D60C8683840C86059
:101E70002100103121CA21C10120DD49DD4A0D6850
:101E8000054204D1D74D08601560022555608021B8
:101E9000302610255869C902084358611068076840
:101EA000B7433D430560C568B543C56020001830A1
:101EB00060CA60C0D04D01202E68D04A370007406C
:101EC000064203D1C74E57601660286003260125DD
:101ED00058690143596110680168B14329430160A1
:101EE000C168B143C1602100203141CA41C1C44928
:101EF000C44A0868284205D19020C0051060072018
:101F00000D60506080218025586989020143596124
:101F10001068BD490668ED010E4035430560C5688F
:101F20000D40C5602000283060CA60C00125B74858
:101F3000B74A06682E4205D19026F6051660062699
:101F400005605660802080265D69800228435861C4
:101F50001068B04D076876012F403E430660C668A2
:101F60002E40C66020003030C0CAC0C00126AA483A
:101F700001950568A94A354204D19A4D066015605D
:101F80000C255560802080265D69C0022843586179
:101F90001068A34F056876043D402E430660C5686F
:101FA0003D40C5602000383060CA60C001259D48B2
:101FB0009D4A06682E4204D18A4E056016600B26A3
:101FC000566080205D69C00205435D611568974ECB
:101FD0002F68B44637408026F6033E4367462E609E
:101FE000EE683E40EE6025004035C0CAC0C5012500
:101FF0008F4E904A37682F4203D17A4F5560176051
:1020000035605D690C26284304255861106807680F
:10201000B7433D430560C568B543C56001258648A3
:10202000A2640668854A2E4204D16E4E0560166091
:102030000326566080205D69C026C00228434025E3
:10204000586110680768B7433D430560C568B543EC
:10205000C56020004C3060CA60C001257848794ACC
:1020600006682E4205D19026F60516600F260560FB
:102070005660802080265D6980022843586115687B
:10208000F60528688000800830432860E8688000F2
:102090008008E8602000543060CA60C001256A48AA
:1020A0006A4A06682E4204D14E4E05601660092623
:1020B000566080255869ED02284358611068644EC7
:1020C000076837403D430560C5683540C56020005E
:1020D0005C3060CA60C001255E485F4A06682E42D7
:1020E00004D1404E05601660082656608020802688
:1020F0005D69C002284358611068584F0568760230
:102100003D402E430660C5683D40C56020006430F8
:1021100060CA60C001255248524A06682E4204D166
:10212000304E056016600726566080205D69C0024B
:102130002843802558611068ED0106680E4035433C
:102140000560C5682940C16021006C3121CA21C1E8
:1021500001204549454A0D68054204D1214D0860DA
:1021600015600625556080215869C90201435961EF
:10217000136801991868002508408021490101432E
:102180001960D96801980140D9602300743303CAEB
:1021900003C3231DDD670433DD6774331D73344BC4
:1021A0002000E36723008C331D6029005D60062258
:1021B0009430FEF773F82000290006229A30FEF7CB
:1021C0006DF82000FEF75CFF2000FFF703FE200003
:1021D000FFF700FE20004DE074490008AC0300202A
:1021E000B00300200004004800100240FFFFCFFFB2
:1021F000A0030020A40300209403002098030020E3
:10220000880300208C030020FF3FFFFF7C03002099
:1022100080030020FFCFFFFF700300207403002025
:10222000FFFFFFFC6403002068030020FFFF3FFF67
:10223000580300205C0300204C03002050030020C2
:102240004003002044030020340300203803002012
:10225000FFFFF3FF280300202C030020FFFFFCFFFB
:102260001C03002020030020100300201403002082
:10227000D0470008FEBDC046F0B5314C0C22A54445
:10228000304908A8FDF7B6FF8021002206AB5B1895
:102290001A702D4B1C31083323932C4B2C48279359
:1022A00006AB5B181A802B4B65312F93339334ABFD
:1022B0001A70B923FF313091329106A95B181A7058
:1022C000BA235B18FF211A7035AB1A7008AB249241
:1022D00025922C922E923190289323AB9B18013299
:1022E00019760C2AF9D100210BA8FDF7D7FF279802
:1022F000FEF728FD0026012723AD6B6B2A6B5B00E0
:10230000D3189C4614000BA9A4450ED022780B2AA2
:1023100007D8607823AB9A18107622788F5402344D
:10232000F2E722880C4B9A42F9D133942B6BA342EB
:1023300014D12C960835012E1FD03E00DDE7C04693
:10234000DCF9FFFFB8470008184B000800200240E6
:102350000064000800680008FFFF00006A6B52007C
:102360009B189C4201D100F0F7FC0EA90BA82C96FB
:10237000FEF780FC0EAB8342DCD12C9B23A9DA0054
:102380008A18516B126B4900521894420CD1C12229
:1023900006A9D2005218D318EB4A9B1801221A70D2
:1023A00000232C932F9B33930EAD29000BA8FEF72F
:1023B00061FC0400A84201D000F0D2FC289B0C2252
:1023C000180029A90093FDF715FF0023BA2106AADA
:1023D000521813702DA80378002B14D12C9B002BBE
:1023E00011D0309BD94E5A0000932F9B19009A1898
:1023F0000B008A4201D000F0C0FC13009B1A5A1E49
:1024000093412DAA13709D2306AA9B181B78002BBD
:1024100016D12C9B012B13D0329B319A5B00CB4EF3
:10242000D3181100934204D00232971E3F88B7425E
:10243000F7D05B1A9D22591E8B4106A952181370C2
:102440009E2606ABF6183100FEF742FC864204D009
:10245000B92306AA9B1803221A708023279A1169B0
:102460000B431361AC4204D00C22B94908A8FDF714
:10247000C1FE23A8FEF704FE0121B64AB64B106840
:10248000084204D1B548116018600E2058608022BF
:102490000120B34D120369690A436A611B68B1499F
:1024A0001A680A401A60DA680A40DA60AE4B009196
:1024B0001968AE4A014204D1A849186011600D2183
:1024C0005160802369691B030B436B611368A84E3D
:1024D0001A6816A832401A60DA683240DA60FFF7EC
:1024E000C3FBA44A1A9B3692A34A01933792002257
:1024F000199B38920293189B39920393179B3D9234
:102500000493169B4192059336AB1A829B4B4592DE
:10251000196849924D920132114204D1052498491B
:1025200098481A6011C180236A69DB0294481343FA
:102530006B610368944C1968012721401960DA68BF
:1025400022400024DA6052AB4F901C8037A8509490
:102550005197FEF795FD8D4A53AB53921C828C4ADE
:102560008C4B54921A68559456945A945E94629483
:1025700066946A943A4204D10421874A81481F60D4
:1025800003C280236A69DB02834813436B610368DB
:10259000824C1968012721401960DA682240002422
:1025A000DA606FAB6C901C8054A86D946E97FEF748
:1025B00067FD7B4A70AB70921C827A4A7A4B7192AB
:1025C0001A687294739477947B947F94839487941D
:1025D0003A4206D19021754AC90511600B211F604E
:1025E000516080236A699B02704813436B610368E2
:1025F0006F4C1968012721401960DA6822400024D5
:10260000DA608CAB89901C8071A88A948B97FEF756
:1026100037FD684A8DAB8D921C82674A674B8E925C
:102620001A688F949094949498949C94A094A494F1
:102630003A4206D19021624AC90511600A211F6001
:10264000516080236A699B025D4813436B61036894
:102650005C4C1968012721401960DA682240002487
:10266000DA60A9ABA6901C808EA8A794A897FEF765
:1026700007FD554AAAABAA921C82544A544BAB920E
:102680001A68AC94AD94B194B594B994BD94C194C6
:102690003A4204D107244F4A4F491F6012C2802397
:1026A0006A69DB034B4813436B6103684B4C196841
:1026B000012721401960DA6822400024DA60C6ABA5
:1026C000C3901C80ABA8C494C597FEF7D9FC444ABC
:1026D000C7ABC7921C82434A434BC8921A68C9943D
:1026E000CA94CE94D294D694DA94DE943A4204D129
:1026F0000D213E4A23481F6003C280236A69DB0222
:102700003A4913436B610B6800241A68C8A8324029
:102710001A60DA681640DE600126E3AB1C80E091A7
:10272000E194E296FEF7ACFC314AE4ABE4921C8201
:10273000304A314BE5921A68E694E794EB94EF94B3
:10274000F394F794FB9459E094FAFFFFFFFF000025
:10275000B8470008780400207C04002000080048E6
:1027600000100240FFFFFFCF6C0400207004002027
:10277000FFFFFFF3E8470008084800082404002092
:102780002804002000040048FFF3FFFF144800085D
:1027900034480008180400201C040020FFFCFFFF40
:1027A00040480008604800080C0400201004002085
:1027B000FFFF3FFF6C4800088C4800080004002021
:1027C00004040020FFFFCFFF98480008B848000825
:1027D000F4030020F803002000140048FF3FFFFF2F
:1027E000C4480008E4480008E8030020EC03002087
:1027F000F048000810490008DC030020324206D1EE
:102800009021F34AC90511600C211E60516080239C
:102810006A699B02EE4813436B610368ED4C1968CB
:10282000012721401960DA6822400024DA60FFABFA
:10283000FD909C80E5A80433FE94FF97FEF720FCF2
:10284000FFABE54AFFA89A60E44A0C30DA60FFAAC1
:102850007032148070AA5A678DAA9A671C615C61F5
:102860001C765C625C635C645C655C66DC66083399
:10287000FEF706FCDA4AFFABDA67DA4A7C335A60C5
:10288000FFAAE432148036AADA66FFA853AA1A67B0
:102890009C60DC601C74DC61DC62DC63DC64DC6535
:1028A0005C668030FEF7ECFB1020FFF7A7F806907F
:1028B000FFF734F90790FA204000FEF7F9FF602295
:1028C00006001F90F52006AB9B181C70C64B083203
:1028D0001B9306AB9B181C80338B1C941D94219476
:1028E0002297400083420FD0F469E38983420BD3DF
:1028F000FA213083238989005843FDF7D5FFA17A57
:1029000002002068FEF776FCB84B328A9A4208D063
:10291000706933820268B64B0381D3621830FEF7C8
:10292000A1FDB44B1A6801231A425DD1B24A116865
:10293000194204D10E24B149B148136011C180235A
:102940006A69DB0213436B61AC4B009A1B68196820
:102950001140802252050A431A60DA6800990A4041
:102960000121DA60A74BA84A1868084204D1A4489C
:10297000196010600F20506080236969DB020B43EF
:1029800080216B611268C90513689B009B080B438B
:102990001360D3689B009B08D36001229B4B19688E
:1029A000114206D190209A49C005086009201A609A
:1029B0004860802380206A699B02134394496B61BD
:1029C0000B68944C1A68C002224010431860DA6801
:1029D0008A482240DA6001228F4B58608A481A7078
:1029E0009860D960834B1A600EAD2A008A4BFFAF06
:1029F00013CB13C200241B68F037136006AB7B6057
:102A0000FFA808AB0321BB603C80FC30FFF70AFA4B
:102A1000B02306AADB009B18804A06A91D60521845
:102A200036AB1360B122D200521853AB13607C4A0C
:102A300070AB52181360B222D20052188DAB1360E3
:102A4000784AAAAB52181360B322D2005218E4ABF2
:102A50001360754AC7AB52181360B422FFABD200A3
:102A6000521808331360714AFFAB52187C3313605D
:102A7000B5226F4BD200521813606E4A6E4B52183B
:102A80001360B623019ADB005B181A606B4B029A45
:102A90005B181A60B723039ADB005B181A60684B57
:102AA000049A5B181A60B823059ADB005B181A6059
:102AB000644B1BAD5B181D60634B644A5B181C6064
:102AC0008B181C70B923624ADB005B18BA26B92048
:102AD0001A60FA23F600C00076185B004018B46054
:102AE0003460F460B360FEF7CBFA5A4A06AB9B1829
:102AF0001C70574B06AA3361574B34629B18BA6857
:102B0000DC847461B4617462118906981985D28875
:102B10009C855A85C022012306A9D2005218136051
:102B20004E4B5B181C60FEF781FC2800FEF78CFD05
:102B3000B42306AADB009B181868494A036812A947
:102B4000DB681592474A12971492984712A8FEF72D
:102B500017F9364B06AA9B181868434A036812A94E
:102B6000DB681592414A12971492984712A8FEF713
:102B700007F9304B06AA9B181868FEF7A1FA00283F
:102B800000D07FE03A4A06AB9B181880B62306AA0D
:102B9000DB009B181868FEF78DFA284B06AA9B18D5
:102BA0001868FEF787FAB72306AADB009B18186897
:102BB000FEF780FA224B06AA9B181868FEF77AFAED
:102BC0000523BC203B70C00006ABC01852E0C046D5
:102BD000E0030020FFFFFFFC1C4900083C490008FF
:102BE0004849000868490008DC470008170400004D
:102BF0008A590000C8040020F4040020F8040020D2
:102C000000040048E8040020EC040020DC0400205C
:102C1000E0040020FFFFF3FFCC0400208405000047
:102C20008C050000940500009C050000A405000030
:102C30007C040020AC05000070040020B4050000F6
:102C4000BC050000C4050000CC050000D405000050
:102C5000D0470008EC050000D20500000406000083
:102C6000F91600080D0B0008A9170008550B0008FD
:102C700002060000FEF7FDF93800FEF751F93800B2
:102C8000FEF70AF9B52306AADB009B181868FEF7C1
:102C900017FA00282AD13B78032B27D1B62306AA9E
:102CA000DB009B181868FEF705FAE14B06AA9B1893
:102CB0001868FEF7FFF9B72306AADB009B1818680F
:102CC000FEF7F8F9DB4B06AA9B181868FEF7F2F935
:102CD0000423BC203B70C00006ABC018FEF78AF985
:102CE0003800FEF71DF93800FEF7D6F8BF2206AB14
:102CF000D2009B181C880A212000FDF7D1FDAF22CD
:102D000006ABD2009B18C9B2197020000A21FDF74A
:102D100041FDC94B06AA9B18C0B2187099235B00ED
:102D2000FB5C3D78002B31D0BB689C880A212000D9
:102D3000FDF7B6FDC14B06AA9B18C9B21970200059
:102D40000A21FDF727FDBE4B06AA9B18C0B21870DA
:102D50002B1F012B33D850E02DAB9F55FFF7EAFA1C
:102D6000C12306AADB009B182C9A9B18B54A9B1816
:102D700001221A700523FFF729FB02318F1E3F88BD
:102D8000B74201D1FFF734FBFFF738FBAC4C06AA82
:102D90006B1EA418012B21D81300AB4A0A219B18E3
:102DA0001D882800FDF77CFDA44A06ABC9B29B181C
:102DB000197028000A21FDF7EDFCC0B22070B02385
:102DC00006AADB009B181B68A04C1B78A418002BDC
:102DD00000D0FAE00D339E492370DAE0042D00D0D4
:102DE000A0E098235B00FB5C002B00D19AE00C2351
:102DF000924906AA521813702370964B06AA9B1884
:102E00001868FEF75DF9B52306AADB009B180400DD
:102E10001868FEF755F9002C00D08CE0002800D08F
:102E200089E08A4B06AA9B180E221A70884B06AAC4
:102E30009B180B221A703800FEF75EF9B92006AB1A
:102E4000C000C018FEF7CCF8002800D116E1982188
:102E50003A780023043A4900012A02D87A5C013307
:102E600053407B54734B06AA9B181868FEF728F949
:102E7000794A06ABD218002800D1C0E001231178AE
:102E80004B401370B6232E24DB0006AA9B1818684B
:102E90003B78FF34032B00D0B3E070493B5D8918C9
:102EA00001220133DBB23B550D786A400A70062BD4
:102EB00001D1FEF7F9F8B62306AADB009B181868C3
:102EC000FEF7FEF85A4D06ABED18002805D03B5D25
:102ED0000C2B02D12868FEF7E7F82868FEF7F0F817
:102EE000002809D03B5D122B06D1B72306AADB00D0
:102EF0009B181868FEF7D8F87B6864215B689868AF
:102F0000574B00049C46000D4A1094001C1925687C
:102F1000854202D98A1A231D013A002A00DCA5E065
:102F20001100F1E7306A736A4E49C01AFDF732FCAE
:102F3000013084B2FAE6474B06AA9B181868FEF7E0
:102F4000BFF8002804D1414B06AA9B180C226CE75D
:102F5000B52306AADB009B181868FEF7B1F8002815
:102F600009D13A4B06AA9B180C221A70384B06AAB4
:102F70009B180E225EE7B02306AADB009B181B6895
:102F80001B78002B08D1314A06A952180D33137053
:102F90002F4A521813704EE7BF2206ABD2009B187F
:102FA0001C880A212000FDF77BFCAF2206ABD20073
:102FB0009B18C9B2197020000A21FDF7EBFB1E4BCC
:102FC000C0B206AA9B18187035E73223FF33FB5CAA
:102FD000002B0FD0BB685D880A212800FDF760FC3C
:102FE000C9B2217028000A21FDF7D4FB184AC0B2EB
:102FF00006ABE7E71C4A06AB9B181D88ECE7107090
:1030000040E70023154A06A952183B551370FEF7F6
:1030100051F8074B06AA9B181868FEF74BF8B72320
:1030200006AADB009B181868FEF744F864E7C04660
:10303000B4050000BC05000079050000740500001F
:103040007505000094FAFFFFFC05000076050000FE
:1030500077050000AC0500007C0500007A05000043
:103060007C49000860EA0000FA0500006246BF21C2
:103070009B1AC90006AA9B1052181380387805289D
:1030800000D9BEE0FDF77CFB06009400CF00EA000B
:103090001A013401B02306AADB009B181C68BB6828
:1030A0009B7A2370002B6BD16068FDF7FDFFA06851
:1030B000FEF700F8E068FDF7FDFFB02306AADB008D
:1030C0009B181B6838001B78002B6ED1FDF7FDFEA6
:1030D000914B06AA9B181868904A036812A91B68AE
:1030E00015928F4A12971492984712A8FDF748FE3E
:1030F0008C4B06AA9B1818688B4A036812A91B6898
:1031000015928A4A12971492984712A8FDF738FE32
:10311000B12306AADB009B181868854A036812A928
:103120001B681592834A12971492984712A8FDF7CC
:1031300027FE7C4B06AA9B1818687F4A036812A9D1
:103140001B6915927D4A12971492984712A8FDF7B1
:1031500017FEB12306AADB009B181868784A03689B
:1031600012A91B691592774A12971492984712A8D0
:10317000FDF706FE3800FDF719FE01233B7040E025
:10318000012B06D16068FDF795FFA068FDF78CFF65
:1031900090E7022B91D16068FDF78CFFA068FDF7E6
:1031A00089FFE068FDF780FF87E7FDF729FE8FE7DD
:1031B00000237B702F33FF33FB5C002B21D0B02327
:1031C00006AADB009B181B681B78022B1BD13B70E7
:1031D000B02206A9D20052181268BB6812783800D3
:1031E0005A810A0058495218128858491A8106AA69
:1031F000521812885649DA8006AB5B181A80FDF720
:103200008FFE30BFB5E40323BC20504A3B7006ABB1
:103210009B181B884F4AC0005343336206ABC0184B
:10322000FDF72EFFD4E73800FDF766FF00280ED02B
:103230000323BC20454A3B7006AB9B181B88454ABC
:10324000C0005343336206ABC018FDF719FF3023AB
:10325000FF33FB5C002BD4D100238FE797235B0067
:10326000FB5C002B07D1BC2006ABC000C018FDF7EB
:10327000C1FE04233B703023FF33FC5C002C06D1DD
:10328000BC2006ABC000C018FDF7F3FE3C70726AAC
:10329000336A9A42B5D30024BC202F4A06AB9B1850
:1032A0001C80C00006ABC018FDF7E3FE2B4B06AA3E
:1032B0009B181868FEF7C8F93C70A2E73023FF336B
:1032C000FB5C002B00D13B7097235B00FB5C002B69
:1032D0000AD0BC2006ABC000C018FDF7D1FE3800F4
:1032E000FDF764FD032349E73800FDF75FFD88E73C
:1032F000B52306AADB009B181868FDF7E1FE184B02
:1033000006AA9B1804001868FDF7DAFE002C00D10D
:1033100077E70028A0D174E79C050000C9150008D4
:103320006D0B0008840500001F150008850B0008C0
:10333000411500089D0B000863150008B50B000837
:1033400087150008CD0B0008FA050000FC050000F9
:10335000FE05000060EA000002060000C40500004F
:10336000AC050000002370B583608B6804000D007D
:10337000002B05D002229847EB68E360AB68A3609E
:10338000200070BD836810B5002B01D0FEF70CFB48
:1033900010BD1FB5002808D06846FFF7E3FF684658
:1033A000FFF7F0FF6846FDF7EBFC05B000BD00003D
:1033B0007FB5C36E0400586EFDF78DFE002803D163
:1033C000636E002B06D17FBD236F586EFDF783FE21
:1033D0000028F5D0E36E586EFDF77DFE002825D05D
:1033E000E36E586EFDF777FE002803D0236F586E0A
:1033F000FDF771FE236F5874E36E5874636E0133EA
:103400006366092BDFD922006832117800293ED18A
:1034100001232100137014316846FFF7A3FF6846AB
:10342000FFF7B0FF6846FDF7ABFCCCE7236F586EA3
:10343000FDF751FE0028D3D12600210068363578EB
:1034400024316846FFF78EFF28006946FFF7A1FF89
:103450006846FDF795FC3578002D04D02300012542
:1034600069331B785D40210068463431FFF77AFFED
:1034700069462800FFF78DFF6846FDF781FC0023B1
:10348000E26E636633805374226F53749BE7FA22B3
:103490009200934297D3230069331A78002A00D010
:1034A00091E7210001321A704431B5E708B4024BAC
:1034B0009C46043808BC6047B13300087FB5C36E32
:1034C0000400586EFDF707FE002803D1636E002B41
:1034D00006D17FBD236F586EFDF7FDFD0028F5D0A6
:1034E000E36E586EFDF7F7FD002825D0E36E586EA9
:1034F000FDF7F1FD002803D0236F586EFDF7EBFDBB
:10350000236F5874E36E5874636E01336366092B3E
:10351000DFD922006832117800293ED10123210031
:10352000137014316846FFF71DFF6846FFF72AFF46
:103530006846FDF725FCCCE7236F586EFDF7CBFD01
:103540000028D3D12600210068363578243168461A
:10355000FFF708FF28006946FFF71BFF6846FDF7E5
:103560000FFC3578002D04D02300012569331B782A
:103570005D40210068463431FFF7F4FE69462800BB
:10358000FFF707FF6846FDF7FBFB0023E26E63666B
:1035900033805374226F53749BE7FA229200934254
:1035A00097D3230069331A78002A00D091E72100CD
:1035B00001321A704431B5E708B4024B9C46043816
:1035C00008BC6047BD34000807B583680191002B33
:1035D00001D101F0E1F8C36801A9984707BD0000D7
:1035E000F0B5040085B0406EFDF775FD002802D1EE
:1035F000A36E002B33D0606EFDF76DFD051E30D13C
:103600002600637C07007036002B00D1377821003C
:1036100068462431FFF7A6FE69463800FFF7B9FE79
:103620006846FDF7ADFB637C002B07D13578002D94
:1036300004D02300012571331878454021006846E5
:103640003431FFF78FFE69462800FFF7A2FE684677
:10365000FDF796FB00230122A366E266338005B0E6
:10366000F0BDA36E5D1CA566092D25D92200703220
:103670001378002B10D1210001331370657C1431B5
:103680005D406846FFF76EFE28006946FFF781FE41
:103690006846FDF775FBE2E7FA239B009D420BD3DA
:1036A000220071321378002B06D1210001331370F0
:1036B000657C44315D40E4E7E36D002BCFD0FA2315
:1036C0009B009D42CBD9FA23DB009D420CD81F4BB7
:1036D0005D430323DD411E4B9D42C0D820000121E4
:1036E0005430FFF771FFBAE71A4B9D4205D8174BCC
:1036F0005D430223DD41184BEEE7FA231B019D4297
:1037000005D8124B5D430123DD41144BE4E7192139
:103710002800FDF7C5F8124B9D4202D800299ED122
:10372000DCE700299BD12000E16E5430FFF74CFF0D
:10373000A26E0C4B53430322D3410B4A934200D950
:103740008DE7E36E0133E36689E7C046295C8FC2EB
:1037500014AE4701B80B0000285C8F0251B81E055B
:1037600088130000D578E9263789410008B4024B58
:103770009C46043808BC6047E1350008F0B50400F9
:1037800085B0406EFDF7A7FC002802D1A36E002B88
:1037900033D0606EFDF79FFC051E30D12600637CA0
:1037A00007007036002B00D137782100684624319D
:1037B000FFF7D8FD69463800FFF7EBFD6846FDF7D7
:1037C000DFFA637C002B07D13578002D04D023006D
:1037D0000125713318784540210068463431FFF7E0
:1037E000C1FD69462800FFF7D4FD6846FDF7C8FA19
:1037F00000230122A366E266338005B0F0BDA36E0C
:103800005D1CA566092D25D9220070321378002B86
:1038100010D1210001331370657C14315D4068467E
:10382000FFF7A0FD28006946FFF7B3FD6846FDF7E6
:10383000A7FAE2E7FA239B009D420BD322007132E4
:103840001378002B06D1210001331370657C4431BD
:103850005D40E4E7E36D002BCFD0FA239B009D424F
:10386000CBD9FA23DB009D420CD81F4B5D430323C9
:10387000DD411E4B9D42C0D8200001215430FFF78E
:10388000A3FEBAE71A4B9D4205D8174B5D430223AE
:10389000DD41184BEEE7FA231B019D4205D8124B80
:1038A0005D430123DD41144BE4E719212800FCF7B7
:1038B000F7FF124B9D4202D800299ED1DCE7002978
:1038C0009BD12000E16E5430FFF77EFEA26E0C4BC0
:1038D00053430322D3410B4A934200D98DE7E36E51
:1038E0000133E36689E7C046295C8FC214AE470105
:1038F000B80B0000285C8F0251B81E058813000029
:10390000D578E9263789410008B4024B9C46043833
:1039100008BC60477D370008F0B5040085B0406EF4
:10392000FDF7D9FB002802D1A36E002B33D0606EC7
:10393000FDF7D1FB051E30D12600637C07007036F1
:10394000002B00D13778210068462431FFF70AFDAB
:1039500069463800FFF71DFD6846FDF711FA637CE4
:10396000002B07D13578002D04D0230001257133B9
:1039700018784540210068463431FFF7F3FC69466A
:103980002800FFF706FD6846FDF7FAF9002301223B
:10399000A366E266338005B0F0BDA36E5D1CA5662C
:1039A000092D25D9220070321378002B10D1210067
:1039B00001331370657C14315D406846FFF7D2FC1B
:1039C00028006946FFF7E5FC6846FDF7D9F9E2E70C
:1039D000FA239B009D420BD3220071321378002BF7
:1039E00006D1210001331370657C44315D40E4E76A
:1039F000E36D002BCFD0FA239B009D42CBD9FA2355
:103A0000DB009D420CD81F4B5D430323DD411E4B61
:103A10009D42C0D8200001215430FFF7D5FDBAE700
:103A20001A4B9D4205D8174B5D430223DD41184BCD
:103A3000EEE7FA231B019D4205D8124B5D4301239B
:103A4000DD41144BE4E719212800FCF729FF124B54
:103A50009D4202D800299ED1DCE700299BD120009D
:103A6000E16E5430FFF7B0FDA26E0C4B53430322BE
:103A7000D3410B4A934200D98DE7E36E0133E366ED
:103A800089E7C046295C8FC214AE4701B80B00001D
:103A9000285C8F0251B81E0588130000D578E926EE
:103AA0003789410008B4024B9C46043808BC604783
:103AB00019390008F0B5040085B0406EFDF70BFB26
:103AC000002802D1A36E002B33D0606EFDF703FBFC
:103AD000051E30D12600637C07007036002B00D114
:103AE0003778210068462431FFF73CFC69463800EE
:103AF000FFF74FFC6846FDF743F9637C002B07D1C5
:103B00003578002D04D02300012571331878454005
:103B1000210068463431FFF725FC69462800FFF78D
:103B200038FC6846FDF72CF900230122A366E26603
:103B3000338005B0F0BDA36E5D1CA566092D25D9A7
:103B4000220070321378002B10D121000133137042
:103B5000657C14315D406846FFF704FC2800694627
:103B6000FFF717FC6846FDF70BF9E2E7FA239B0025
:103B70009D420BD3220071321378002B06D1210015
:103B800001331370657C44315D40E4E7E36D002B45
:103B9000CFD0FA239B009D42CBD9FA23DB009D4274
:103BA0000CD81F4B5D430323DD411E4B9D42C0D803
:103BB000200001215430FFF707FDBAE71A4B9D4260
:103BC00005D8174B5D430223DD41184BEEE7FA237E
:103BD0001B019D4205D8124B5D430123DD41144B6F
:103BE000E4E719212800FCF75BFE124B9D4202D846
:103BF00000299ED1DCE700299BD12000E16E5430E2
:103C0000FFF7E2FCA26E0C4B53430322D3410B4A55
:103C1000934200D98DE7E36E0133E36689E7C0463E
:103C2000295C8FC214AE4701B80B0000285C8F02DC
:103C300051B81E0588130000D578E9263789410060
:103C400008B4024B9C46043808BC6047B53A0008EB
:103C5000F0B5040085B0406EFDF73DFA002802D1B2
:103C6000A36E002B33D0606EFDF735FA051E30D100
:103C70002600637C07007036002B00D137782100C6
:103C800068462431FFF76EFB69463800FFF781FB79
:103C90006846FDF775F8637C002B07D13578002D59
:103CA00004D023000125713318784540210068466F
:103CB0003431FFF757FB69462800FFF76AFB684677
:103CC000FDF75EF800230122A366E266338005B0AB
:103CD000F0BDA36E5D1CA566092D25D922007032AA
:103CE0001378002B10D1210001331370657C14313F
:103CF0005D406846FFF736FB28006946FFF749FB41
:103D00006846FDF73DF8E2E7FA239B009D420BD39E
:103D1000220071321378002B06D121000133137079
:103D2000657C44315D40E4E7E36D002BCFD0FA239E
:103D30009B009D42CBD9FA23DB009D420CD81F4B40
:103D40005D430323DD411E4B9D42C0D8200001216D
:103D50005430FFF739FCBAE71A4B9D4205D8174B90
:103D60005D430223DD41184BEEE7FA231B019D4220
:103D700005D8124B5D430123DD41144BE4E71921C3
:103D80002800FCF78DFD124B9D4202D800299ED1E0
:103D9000DCE700299BD12000E16E5430FFF714FCD2
:103DA000A26E0C4B53430322D3410B4A934200D9DA
:103DB0008DE7E36E0133E36689E7C046295C8FC275
:103DC00014AE4701B80B0000285C8F0251B81E05E5
:103DD00088130000D578E9263789410008B4024BE2
:103DE0009C46043808BC6047513C0008F0B504000C
:103DF00085B0406EFDF76FF9002802D1A36E002B4D
:103E000033D0606EFDF767F9051E30D12600637C64
:103E100007007036002B00D1377821006846243126
:103E2000FFF7A0FA69463800FFF7B3FA6846FCF7D7
:103E3000A7FF637C002B07D13578002D04D0230029
:103E40000125713318784540210068463431FFF769
:103E500089FA69462800FFF79CFA6846FCF790FF4C
:103E600000230122A366E266338005B0F0BDA36E95
:103E70005D1CA566092D25D9220070321378002B10
:103E800010D1210001331370657C14315D40684608
:103E9000FFF768FA28006946FFF77BFA6846FCF7E7
:103EA0006FFFE2E7FA239B009D420BD322007132A1
:103EB0001378002B06D1210001331370657C443147
:103EC0005D40E4E7E36D002BCFD0FA239B009D42D9
:103ED000CBD9FA23DB009D420CD81F4B5D43032353
:103EE000DD411E4B9D42C0D8200001215430FFF718
:103EF0006BFBBAE71A4B9D4205D8174B5D43022373
:103F0000DD41184BEEE7FA231B019D4205D8124B09
:103F10005D430123DD41144BE4E719212800FCF740
:103F2000BFFC124B9D4202D800299ED1DCE700293C
:103F30009BD12000E16E5430FFF746FBA26E0C4B84
:103F400053430322D3410B4A934200D98DE7E36EDA
:103F50000133E36689E7C046295C8FC214AE47018E
:103F6000B80B0000285C8F0251B81E0588130000B2
:103F7000D578E9263789410008B4024B9C460438BD
:103F800008BC6047ED3D0008F0B5040085B0406E08
:103F9000FDF7A1F8002802D1A36E002B33D0606E8C
:103FA000FDF799F8051E30D12600637C07007036B6
:103FB000002B00D13778210068462431FFF7D2F971
:103FC00069463800FFF7E5F96846FCF7D9FE637CDF
:103FD000002B07D13578002D04D023000125713343
:103FE00018784540210068463431FFF7BBF969462F
:103FF0002800FFF7CEF96846FCF7C2FE0023012235
:10400000A366E266338005B0F0BDA36E5D1CA566B5
:10401000092D25D9220070321378002B10D12100F0
:1040200001331370657C14315D406846FFF79AF9DF
:1040300028006946FFF7ADF96846FCF7A1FEE2E704
:10404000FA239B009D420BD3220071321378002B80
:1040500006D1210001331370657C44315D40E4E7F3
:10406000E36D002BCFD0FA239B009D42CBD9FA23DE
:10407000DB009D420CD81F4B5D430323DD411E4BEB
:104080009D42C0D8200001215430FFF79DFABAE7C5
:104090001A4B9D4205D8174B5D430223DD41184B57
:1040A000EEE7FA231B019D4205D8124B5D43012325
:1040B000DD41144BE4E719212800FCF7F1FB124B1A
:1040C0009D4202D800299ED1DCE700299BD1200027
:1040D000E16E5430FFF778FAA26E0C4B5343032283
:1040E000D3410B4A934200D98DE7E36E0133E36677
:1040F00089E7C046295C8FC214AE4701B80B0000A7
:10410000285C8F0251B81E0588130000D578E92677
:104110003789410008B4024B9C46043808BC60470C
:10412000893F000830B50B1A9B10002B15DD147861
:104130000578A54203D04578A54201D1013030BDB4
:104140008578A54201D10230F9E7C578A54201D1B1
:104150000330F4E70430013BE7E70B1A022B0AD0E7
:10416000032B03D0012B0BD00800E8E70478137869
:104170009C42E4D00130047813789C42DFD00130B7
:10418000047813789C42EFD1D9E70000F0B5050020
:1041900045352B780400466985B0D8B2052B36D852
:1041A000FCF7E4FA0317377197C6220048321378F8
:1041B000E118F65C097E8E4200D0D4E00133DBB218
:1041C0000B2B00D818001070434243414434237035
:1041D0001DE02069C368DB0719D403691B0616D5E7
:1041E000FCF7B0FD022123691A698A431A61012292
:1041F000186902431A61230048331A78013BB05C06
:1042000018701B78206C1B0213430380297005B0C3
:10421000F0BD2369DA689206F9D52022D9680A43ED
:10422000DA60802219690A431A61210023004831AB
:1042300047331A780B78E3181A76236C981C636A54
:104240002064DA00A218566B7700166B2200F6196C
:104250004632B04203D01378DBB22B70D7E7012689
:10426000E01828309B190670B34200D9002363621E
:10427000DB00E3181B6B236400230B7001332B70EE
:1042800004331370C3E72769FB68DB07BFD43B69BE
:104290001B06BCD5230026002833019302ABDA1D90
:1042A00001232A36310001981370FFF73BFFB0421B
:1042B00002D146342378CFE7019BC01AE062380070
:1042C000FCF740FDE36A294AD15CFCF747FD042373
:1042D000C3E72369DA68920699D52022D968244E6B
:1042E0000A43DA60802219690A431A61E16ACB0045
:1042F000E3181A6B5B6B5B00D3181000934204D079
:104300000232971E3F88B742F7D061180A001B1A85
:104310002600591E8B41200028322A3613703100A6
:104320002830FCF7D5FC0323864296D1002394E77E
:104330002200483213780133DBB20B2B10D9002353
:104340001370260020002A3631002830FCF7C0FC0C
:104350000323864200D100232B704634002336E726
:104360001370002BEDD0012377E7C0467849000891
:10437000FFFF000073B56B4604001A0060CC60C2FA
:104380000A0030CA30C005CB05C173BD1FB504009B
:104390006846FEF7E7FF21006846FFF7EBFF029B48
:1043A000A268A360039B0292E2686846E3600392FE
:1043B000FCF7E6FC200004B010BD10B54430FFF758
:1043C000E5FF10BD10B53430FFF7E0FF10BD10B5AC
:1043D0002430FFF7DBFF10BD10B51430FFF7D6FF18
:1043E00010BD10B54430FFF7D1FF10BD10B534300B
:1043F000FFF7CCFF10BD10B52430FFF7C7FF10BD8D
:1044000010B51430FFF7C2FF10BD10B54430FFF7F0
:10441000BDFF10BD10B53430FFF7B8FF10BD10B5AB
:104420002430FFF7B3FF10BD10B51430FFF7AEFF17
:1044300010BD10B54430FFF7A9FF10BD10B53430E2
:10444000FFF7A4FF10BD10B52430FFF79FFF10BD8C
:1044500010B51430FFF79AFF10BD10B54430FFF7C8
:1044600095FF10BD10B53430FFF790FF10BD10B5AB
:104470002430FFF78BFF10BD10B51430FFF786FF17
:1044800010BD10B54430FFF781FF10BD10B53430BA
:10449000FFF77CFF10BD10B52430FFF777FF10BD8C
:1044A00010B51430FFF772FF10BD10B54430FFF7A0
:1044B0006DFF10BD10B53430FFF768FF10BD10B5AB
:1044C0002430FFF763FF10BD10B51430FFF75EFF17
:1044D00010BD10B54430FFF759FF10BD10B5343092
:1044E000FFF754FF10BD10B52430FFF74FFF10BD8C
:1044F00010B51430FFF74AFF10BD10B54430FFF778
:1045000045FF10BD10B53430FFF740FF10BD10B5AA
:104510002430FFF73BFF10BD10B51430FFF736FF16
:1045200010BD002330B587B004938B6804000D00E4
:10453000002B07D0022202A89847EB680593AB68CE
:1045400001930493210002A8FFF714FF049BA268C3
:10455000A360059B0492E26802A8E3600592FCF761
:104560000FFC200007B030BD10B55430FFF7D9FF65
:1045700010BD10B55430FFF7D4FF10BD10B5543046
:10458000FFF7CFFF10BD10B55430FFF7CAFF10BDC5
:1045900010B55430FFF7C5FF10BD10B55430FFF70C
:1045A000C0FF10BD10B55430FFF7BBFF10BD10B5F4
:1045B0005430FFF7B6FF10BD10B55430FFF7B1FF10
:1045C00010BD000070B5012200243D4B02251C6087
:1045D0005C609C605A61DC601C613A4B3A4E196821
:1045E000914319603949596004219C60186801435E
:1045F000196019683000294319601968FF360A43A9
:104600001A60842221005200FBF748FE1922304B29
:1046100074711D711C602F4B1A711C602E4B521946
:104620001A711C602D4B0E3A1A711C602C4B033210
:104630001A711C602B4B073A1A711C602A4B01320D
:104640001A711C60294B1A711C60294B01321A71B6
:104650001C60284B1A711C60274B063A1C601A71AB
:10466000264B1A711C60264B01321A711C60254BB7
:104670001A711C600723244A13711460234A1371B2
:104680001460234A13711460224A13711460224A81
:1046900013711460214A13711460214A137114605C
:1046A000204A14601371204A146013711F4A146069
:1046B00013711F4A146013711E4A1460137170BD88
:1046C0000807002010E000E0300500207FBB00005C
:1046D000E0060020E806002000070020F006002089
:1046E000F80600203806002040060020480600207A
:1046F00050060020580600206006002068060020B2
:10470000A0060020A8060020B0060020B806002061
:10471000C0060020C8060020D0060020D8060020D1
:104720007006002078060020800600208806002001
:1047300090060020980600200D4885460D480E4939
:104740000E4A002302E0D458C4500433C4188C42EB
:10475000F9D30B4A0B4C002301E013600432A24250
:10476000FBD3FDF779F8FBF70FFDFDF785FDFEE7BD
:10477000001000200000002050010020304B0008F5
:104780005001002024070020FEE7030010B50800B8
:104790001900FBF7E9FC10BD10B5FBF7DDFC0000CC
:1047A000F8B5C046F8BC08BC9E467047F8B5C04690
:0847B000F8BC08BC9E467047EE
:1047B800050063006300000014000000740100207D
:1047C8000000000000000000D50A000800000000FA
:1047D8000000000035100008000000000000000084
:1047E800D9430008CF430008C5430008BB4300086D
:1047F80069450008513C0008FCFFFFFF000000006D
:10480800DD3D000800000000000000000144000831
:10481800F7430008ED430008E34300087345000828
:10482800B53A0008FCFFFFFF00000000413C00080B
:104838000000000000000000294400081F44000890
:10484800154400080B4400087D4500081939000884
:10485800FCFFFFFF00000000A53A00080000000070
:104868000000000051440008474400083D44000887
:1048780033440008874500087D370008FCFFFFFF28
:1048880000000000093900080000000000000000D6
:10489800794400086F440008654400085B44000838
:1048A80091450008893F0008FCFFFFFF0000000059
:1048B800154100080000000000000000A1440008A5
:1048C800974400088D440008834400089B4500086D
:1048D800ED3D0008FCFFFFFF00000000793F0008E5
:1048E8000000000000000000C9440008BF440008A0
:1048F800B5440008AB440008A5450008E1350008A8
:10490800FCFFFFFF000000006D37000800000000FA
:1049180000000000F1440008E7440008DD440008F6
:10492800D3440008AF450008BD340008FCFFFFFF72
:1049380000000000B9350008000000000000000079
:10494800194500080F45000805450008FB44000804
:10495800B9450008B1330008FCFFFFFF0000000064
:10496800AD340008000000000000000071110008CC
:104978001A190000FE0D0000E40D0000C90D00002A
:10498800AD0D00008F0D0000770D0000590D0000DF
:10499800390D0000190D0000F70C0000DB0C0000B9
:1049A800B80C0000950C0000700C00004B0C0000C7
:1049B8002B0C0000040C0000DC0B0000B40B000002
:1049C8008A0B0000690B00003F0B0000150B00006C
:1049D800E90A0000BD0A0000980A00006C0A0000FD
:1049E8003F0A0000110A0000E3090000BE090000A8
:1049F8009009000061090000320900000209000066
:104A0800DB080000AD0800007E0800004F08000029
:104A180020080000FA070000CD070000A0070000EA
:104A2800730700004607000022070000F606000092
:104A3800CB060000A0060000750600005306000023
:104A48002A06000002060000DA050000B205000090
:104A5800920500006C0500004605000022050000D4
:104A6800FD040000E0040000BE0400009C040000F7
:104A78007B0400005A0400004004000021040000E8
:104A880003040000E5030000C8030000B1030000B0
:104A9800960300007B030000610300004703000049
:104AA800330300001B03000004030000ED020000B4
:104AB800D6020000C5020000B00200009B02000000
:104AC8008702000074020000650200005302000023
:104AD80042020000300200001F0200001302000022
:104AE80003020000F4010000E5010000D501000008
:104AF800CB010000BD010000B0010000A3010000CF
:104B0800960100000000000000000000BB1900082A
:0C4B180000000000000000008D410008BB
:084B240035010008C545000839
:044B2C000901000873
:104B3000000000000800002000000000000000004D
:104B40000000000000000000000000000000000065
:104B50000000000000000000000000000000000055
:104B60000000000000000000000000000000000045
:104B70000000000000000000000000000000000035
:104B80000000000000000000000000000000000025
:104B90000000000000000000000000000001000014
:104BA0000000010000000001000000000100000002
:104BB00000010000000001000000000000000000F3
:104BC00000000101000001010101000001000001DD
:104BD00000000000000101000100000101000000D0
:104BE00001000001000000010000000000000000C2
:104BF00001010101000000000000000000000001B0
:104C0000000001000001000000010101000000019E
:104C10000101010101010101010101010100000186
:104C20000100000001010101010101010101010177
:104C30000101010101010101010101010101010164
:104C40000101010101010101010101010101010154
:104C50000101010101000100010101010000010148
:104C60000101010001010101010000010101010038
:104C70000100010101000101000101000101010029
:04000005080047396F
:00000001FF
